{
  "abi": [
    {
      "inputs": [
        {
          "internalType": "address",
          "name": "_erc20TransferHelper",
          "type": "address"
        },
        {
          "internalType": "address",
          "name": "_erc721TransferHelper",
          "type": "address"
        },
        {
          "internalType": "address",
          "name": "_royaltyEngine",
          "type": "address"
        },
        {
          "internalType": "address",
          "name": "_protocolFeeSettings",
          "type": "address"
        },
        {
          "internalType": "address",
          "name": "_wethAddress",
          "type": "address"
        }
      ],
      "stateMutability": "nonpayable",
      "type": "constructor"
    },
    {
      "anonymous": false,
      "inputs": [
        {
          "indexed": true,
          "internalType": "address",
          "name": "tokenContract",
          "type": "address"
        },
        {
          "indexed": true,
          "internalType": "uint256",
          "name": "tokenId",
          "type": "uint256"
        },
        {
          "indexed": true,
          "internalType": "uint256",
          "name": "id",
          "type": "uint256"
        },
        {
          "components": [
            {
              "internalType": "address",
              "name": "maker",
              "type": "address"
            },
            {
              "internalType": "address[]",
              "name": "tokenAddresses",
              "type": "address[]"
            },
            {
              "internalType": "uint16",
              "name": "findersFeeBps",
              "type": "uint16"
            }
          ],
          "indexed": false,
          "internalType": "struct BarterOffersV1.Offer",
          "name": "offer",
          "type": "tuple"
        }
      ],
      "name": "BarterOfferCanceled",
      "type": "event"
    },
    {
      "anonymous": false,
      "inputs": [
        {
          "indexed": true,
          "internalType": "address",
          "name": "tokenContract",
          "type": "address"
        },
        {
          "indexed": true,
          "internalType": "uint256",
          "name": "tokenId",
          "type": "uint256"
        },
        {
          "indexed": true,
          "internalType": "uint256",
          "name": "id",
          "type": "uint256"
        },
        {
          "components": [
            {
              "internalType": "address",
              "name": "maker",
              "type": "address"
            },
            {
              "internalType": "address[]",
              "name": "tokenAddresses",
              "type": "address[]"
            },
            {
              "internalType": "uint16",
              "name": "findersFeeBps",
              "type": "uint16"
            }
          ],
          "indexed": false,
          "internalType": "struct BarterOffersV1.Offer",
          "name": "offer",
          "type": "tuple"
        }
      ],
      "name": "BarterOfferCreated",
      "type": "event"
    },
    {
      "anonymous": false,
      "inputs": [
        {
          "indexed": true,
          "internalType": "address",
          "name": "tokenContract",
          "type": "address"
        },
        {
          "indexed": true,
          "internalType": "uint256",
          "name": "tokenId",
          "type": "uint256"
        },
        {
          "indexed": true,
          "internalType": "uint256",
          "name": "id",
          "type": "uint256"
        },
        {
          "indexed": false,
          "internalType": "address",
          "name": "taker",
          "type": "address"
        },
        {
          "indexed": false,
          "internalType": "address",
          "name": "finder",
          "type": "address"
        },
        {
          "components": [
            {
              "internalType": "address",
              "name": "maker",
              "type": "address"
            },
            {
              "internalType": "address[]",
              "name": "tokenAddresses",
              "type": "address[]"
            },
            {
              "internalType": "uint16",
              "name": "findersFeeBps",
              "type": "uint16"
            }
          ],
          "indexed": false,
          "internalType": "struct BarterOffersV1.Offer",
          "name": "offer",
          "type": "tuple"
        }
      ],
      "name": "BarterOfferFilled",
      "type": "event"
    },
    {
      "anonymous": false,
      "inputs": [
        {
          "indexed": true,
          "internalType": "address",
          "name": "tokenContract",
          "type": "address"
        },
        {
          "indexed": true,
          "internalType": "uint256",
          "name": "tokenId",
          "type": "uint256"
        },
        {
          "indexed": true,
          "internalType": "uint256",
          "name": "id",
          "type": "uint256"
        },
        {
          "components": [
            {
              "internalType": "address",
              "name": "maker",
              "type": "address"
            },
            {
              "internalType": "address[]",
              "name": "tokenAddresses",
              "type": "address[]"
            },
            {
              "internalType": "uint16",
              "name": "findersFeeBps",
              "type": "uint16"
            }
          ],
          "indexed": false,
          "internalType": "struct BarterOffersV1.Offer",
          "name": "offer",
          "type": "tuple"
        }
      ],
      "name": "BarterOfferUpdated",
      "type": "event"
    },
    {
      "anonymous": false,
      "inputs": [
        {
          "indexed": true,
          "internalType": "address",
          "name": "userA",
          "type": "address"
        },
        {
          "indexed": true,
          "internalType": "address",
          "name": "userB",
          "type": "address"
        },
        {
          "components": [
            {
              "internalType": "address",
              "name": "tokenContract",
              "type": "address"
            },
            {
              "internalType": "uint256",
              "name": "tokenId",
              "type": "uint256"
            },
            {
              "internalType": "uint256",
              "name": "amount",
              "type": "uint256"
            }
          ],
          "indexed": false,
          "internalType": "struct UniversalExchangeEventV1.ExchangeDetails",
          "name": "a",
          "type": "tuple"
        },
        {
          "components": [
            {
              "internalType": "address",
              "name": "tokenContract",
              "type": "address"
            },
            {
              "internalType": "uint256",
              "name": "tokenId",
              "type": "uint256"
            },
            {
              "internalType": "uint256",
              "name": "amount",
              "type": "uint256"
            }
          ],
          "indexed": false,
          "internalType": "struct UniversalExchangeEventV1.ExchangeDetails",
          "name": "b",
          "type": "tuple"
        }
      ],
      "name": "ExchangeExecuted",
      "type": "event"
    },
    {
      "anonymous": false,
      "inputs": [
        {
          "indexed": true,
          "internalType": "address",
          "name": "tokenContract",
          "type": "address"
        },
        {
          "indexed": true,
          "internalType": "uint256",
          "name": "tokenId",
          "type": "uint256"
        },
        {
          "indexed": false,
          "internalType": "address",
          "name": "recipient",
          "type": "address"
        },
        {
          "indexed": false,
          "internalType": "uint256",
          "name": "amount",
          "type": "uint256"
        }
      ],
      "name": "RoyaltyPayout",
      "type": "event"
    },
    {
      "inputs": [
        {
          "internalType": "address",
          "name": "_tokenContract",
          "type": "address"
        },
        {
          "internalType": "uint256",
          "name": "_tokenId",
          "type": "uint256"
        },
        {
          "internalType": "uint256",
          "name": "_amount",
          "type": "uint256"
        },
        {
          "internalType": "address",
          "name": "_payoutCurrency",
          "type": "address"
        }
      ],
      "name": "_handleRoyaltyEnginePayout",
      "outputs": [
        {
          "internalType": "uint256",
          "name": "",
          "type": "uint256"
        }
      ],
      "stateMutability": "payable",
      "type": "function"
    },
    {
      "inputs": [
        {
          "internalType": "address",
          "name": "_targetTokenContract",
          "type": "address"
        },
        {
          "internalType": "uint256",
          "name": "_targetTokenId",
          "type": "uint256"
        },
        {
          "internalType": "uint256",
          "name": "_offerId",
          "type": "uint256"
        }
      ],
      "name": "cancelOffer",
      "outputs": [],
      "stateMutability": "nonpayable",
      "type": "function"
    },
    {
      "inputs": [
        {
          "internalType": "address",
          "name": "_targetTokenContract",
          "type": "address"
        },
        {
          "internalType": "uint256",
          "name": "_targetTokenId",
          "type": "uint256"
        },
        {
          "internalType": "address[]",
          "name": "_offerTokenAddresses",
          "type": "address[]"
        },
        {
          "internalType": "bool[]",
          "name": "_isNfts",
          "type": "bool[]"
        },
        {
          "internalType": "uint256[]",
          "name": "_offerTokenIds",
          "type": "uint256[]"
        },
        {
          "internalType": "uint256[]",
          "name": "_amounts",
          "type": "uint256[]"
        },
        {
          "internalType": "uint16",
          "name": "_findersFeeBps",
          "type": "uint16"
        }
      ],
      "name": "createOffer",
      "outputs": [
        {
          "internalType": "uint256",
          "name": "",
          "type": "uint256"
        }
      ],
      "stateMutability": "payable",
      "type": "function"
    },
    {
      "inputs": [],
      "name": "erc20TransferHelper",
      "outputs": [
        {
          "internalType": "contract ERC20TransferHelper",
          "name": "",
          "type": "address"
        }
      ],
      "stateMutability": "view",
      "type": "function"
    },
    {
      "inputs": [],
      "name": "erc721TransferHelper",
      "outputs": [
        {
          "internalType": "contract ERC721TransferHelper",
          "name": "",
          "type": "address"
        }
      ],
      "stateMutability": "view",
      "type": "function"
    },
    {
      "inputs": [
        {
          "internalType": "address",
          "name": "_targetTokenContract",
          "type": "address"
        },
        {
          "internalType": "uint256",
          "name": "_targetTokenId",
          "type": "uint256"
        },
        {
          "internalType": "uint256",
          "name": "_offerId",
          "type": "uint256"
        },
        {
          "internalType": "address[]",
          "name": "_offerTokenAddresses",
          "type": "address[]"
        },
        {
          "internalType": "uint256[]",
          "name": "_offerTokenIds",
          "type": "uint256[]"
        },
        {
          "internalType": "uint256[]",
          "name": "_amounts",
          "type": "uint256[]"
        },
        {
          "internalType": "address",
          "name": "_finder",
          "type": "address"
        }
      ],
      "name": "fillOffer",
      "outputs": [],
      "stateMutability": "nonpayable",
      "type": "function"
    },
    {
      "inputs": [],
      "name": "name",
      "outputs": [
        {
          "internalType": "string",
          "name": "",
          "type": "string"
        }
      ],
      "stateMutability": "view",
      "type": "function"
    },
    {
      "inputs": [],
      "name": "offerCount",
      "outputs": [
        {
          "internalType": "uint256",
          "name": "",
          "type": "uint256"
        }
      ],
      "stateMutability": "view",
      "type": "function"
    },
    {
      "inputs": [
        {
          "internalType": "uint256",
          "name": "",
          "type": "uint256"
        },
        {
          "internalType": "address",
          "name": "",
          "type": "address"
        }
      ],
      "name": "offerTokenOfferMap",
      "outputs": [
        {
          "internalType": "bool",
          "name": "isPresent",
          "type": "bool"
        },
        {
          "internalType": "bool",
          "name": "isNft",
          "type": "bool"
        },
        {
          "internalType": "uint256",
          "name": "tokenId",
          "type": "uint256"
        },
        {
          "internalType": "uint256",
          "name": "amount",
          "type": "uint256"
        },
        {
          "internalType": "address",
          "name": "tokenAddress",
          "type": "address"
        }
      ],
      "stateMutability": "view",
      "type": "function"
    },
    {
      "inputs": [
        {
          "internalType": "address",
          "name": "",
          "type": "address"
        },
        {
          "internalType": "uint256",
          "name": "",
          "type": "uint256"
        },
        {
          "internalType": "uint256",
          "name": "",
          "type": "uint256"
        }
      ],
      "name": "offers",
      "outputs": [
        {
          "internalType": "address",
          "name": "maker",
          "type": "address"
        },
        {
          "internalType": "uint16",
          "name": "findersFeeBps",
          "type": "uint16"
        }
      ],
      "stateMutability": "view",
      "type": "function"
    },
    {
      "inputs": [
        {
          "internalType": "address",
          "name": "",
          "type": "address"
        },
        {
          "internalType": "uint256",
          "name": "",
          "type": "uint256"
        },
        {
          "internalType": "uint256",
          "name": "",
          "type": "uint256"
        }
      ],
      "name": "offersForNFT",
      "outputs": [
        {
          "internalType": "uint256",
          "name": "",
          "type": "uint256"
        }
      ],
      "stateMutability": "view",
      "type": "function"
    },
    {
      "inputs": [
        {
          "internalType": "address",
          "name": "",
          "type": "address"
        },
        {
          "internalType": "address",
          "name": "",
          "type": "address"
        },
        {
          "internalType": "uint256",
          "name": "",
          "type": "uint256"
        },
        {
          "internalType": "bytes",
          "name": "",
          "type": "bytes"
        }
      ],
      "name": "onERC721Received",
      "outputs": [
        {
          "internalType": "bytes4",
          "name": "",
          "type": "bytes4"
        }
      ],
      "stateMutability": "nonpayable",
      "type": "function"
    },
    {
      "inputs": [],
      "name": "registrar",
      "outputs": [
        {
          "internalType": "address",
          "name": "",
          "type": "address"
        }
      ],
      "stateMutability": "view",
      "type": "function"
    },
    {
      "inputs": [
        {
          "internalType": "address",
          "name": "_targetTokenContract",
          "type": "address"
        },
        {
          "internalType": "uint256",
          "name": "_targetTokenId",
          "type": "uint256"
        },
        {
          "internalType": "uint256",
          "name": "_offerId",
          "type": "uint256"
        },
        {
          "internalType": "address[]",
          "name": "_offerTokenAddresses",
          "type": "address[]"
        },
        {
          "internalType": "uint256[]",
          "name": "_offerTokenIds",
          "type": "uint256[]"
        },
        {
          "internalType": "uint256[]",
          "name": "_amounts",
          "type": "uint256[]"
        }
      ],
      "name": "setOfferAmount",
      "outputs": [],
      "stateMutability": "payable",
      "type": "function"
    },
    {
      "inputs": [
        {
          "internalType": "address",
          "name": "_royaltyEngine",
          "type": "address"
        }
      ],
      "name": "setRoyaltyEngineAddress",
      "outputs": [],
      "stateMutability": "nonpayable",
      "type": "function"
    }
  ],
  "bytecode": {
    "object": "0x61012060405260016000553480156200001757600080fd5b5060405162004d8238038062004d828339810160408190526200003a9162000250565b6040518060400160405280601281526020017104261727465724f66666572733a2076312e360741b81525084848484886001600160a01b031663e3e606f06040518163ffffffff1660e01b8152600401602060405180830381865afa158015620000a8573d6000803e3d6000fd5b505050506040513d601f19601f82011682018060405250810190620000ce9190620002d0565b6001600160a01b0316632b20e3976040518163ffffffff1660e01b8152600401602060405180830381865afa1580156200010c573d6000803e3d6000fd5b505050506040513d601f19601f82011682018060405250810190620001329190620002d0565b6001600160a01b038b811660805291821660a052600180546001600160a01b0319169483169490941790935590811660e05290811660c052166101005280516200018490600290602084019062000191565b5050505050505062000334565b8280546200019f90620002f7565b90600052602060002090601f016020900481019282620001c357600085556200020e565b82601f10620001de57805160ff19168380011785556200020e565b828001600101855582156200020e579182015b828111156200020e578251825591602001919060010190620001f1565b506200021c92915062000220565b5090565b5b808211156200021c576000815560010162000221565b6001600160a01b03811681146200024d57600080fd5b50565b600080600080600060a086880312156200026957600080fd5b8551620002768162000237565b6020870151909550620002898162000237565b60408701519094506200029c8162000237565b6060870151909350620002af8162000237565b6080870151909250620002c28162000237565b809150509295509295909350565b600060208284031215620002e357600080fd5b8151620002f08162000237565b9392505050565b600181811c908216806200030c57607f821691505b602082108114156200032e57634e487b7160e01b600052602260045260246000fd5b50919050565b60805160a05160c05160e051610100516149df620003a36000396000818161042601528181611e130152612e9f01526000818161370701526137b30152600081816101d401526122280152600081816133b101526134490152600081816102db015261309c01526149df6000f3fe6080604052600436106100e85760003560e01c80638f9d32511161008a578063e3b4367711610059578063e3b4367714610350578063ebe46344146103e1578063eccb62db14610401578063f7cd1d9b1461041457600080fd5b80638f9d3251146102c957806390e7f4d8146102fd5780639128c22c1461031d578063b249bb301461033057600080fd5b80631115c24d116100c65780631115c24d1461015b578063150b7a02146101715780632b20e397146101c25780633573cc5f1461021b57600080fd5b806306fdde03146100ed57806308ccf071146101185780630e030d6a14610139575b600080fd5b3480156100f957600080fd5b50610102610448565b60405161010f9190613e07565b60405180910390f35b61012b610126366004614088565b6104d6565b60405190815260200161010f565b34801561014557600080fd5b50610159610154366004614160565b610d2b565b005b34801561016757600080fd5b5061012b60035481565b34801561017d57600080fd5b5061019161018c366004614195565b611258565b6040517fffffffff00000000000000000000000000000000000000000000000000000000909116815260200161010f565b3480156101ce57600080fd5b506101f67f000000000000000000000000000000000000000000000000000000000000000081565b60405173ffffffffffffffffffffffffffffffffffffffff909116815260200161010f565b34801561022757600080fd5b50610289610236366004614277565b6005602090815260009283526040808420909152908252902080546001820154600283015460039093015460ff8084169461010090940416929073ffffffffffffffffffffffffffffffffffffffff1685565b604080519515158652931515602086015292840191909152606083015273ffffffffffffffffffffffffffffffffffffffff16608082015260a00161010f565b3480156102d557600080fd5b506101f67f000000000000000000000000000000000000000000000000000000000000000081565b34801561030957600080fd5b506101596103183660046142f3565b611282565b61012b61032b3660046143c0565b611f6d565b34801561033c57600080fd5b5061015961034b36600461440a565b612210565b34801561035c57600080fd5b506103b261036b366004614160565b60046020908152600093845260408085208252928452828420905282529020805460029091015473ffffffffffffffffffffffffffffffffffffffff9091169061ffff1682565b6040805173ffffffffffffffffffffffffffffffffffffffff909316835261ffff90911660208301520161010f565b3480156103ed57600080fd5b5061012b6103fc366004614160565b6123d2565b61015961040f366004614427565b612410565b34801561042057600080fd5b506101f67f000000000000000000000000000000000000000000000000000000000000000081565b60028054610455906144e9565b80601f0160208091040260200160405190810160405280929190818152602001828054610481906144e9565b80156104ce5780601f106104a3576101008083540402835291602001916104ce565b820191906000526020600020905b8154815290600101906020018083116104b157829003601f168201915b505050505081565b60008054600114610548576040517f08c379a000000000000000000000000000000000000000000000000000000000815260206004820152600a60248201527f5245454e5452414e43590000000000000000000000000000000000000000000060448201526064015b60405180910390fd5b600260005585518690600510156105e1576040517f08c379a000000000000000000000000000000000000000000000000000000000815260206004820152602660248201527f4f66666572206d616465206f6e206d6f726520746f6b656e73207468616e206160448201527f6c6c6f7765640000000000000000000000000000000000000000000000000000606482015260840161053f565b6127108361ffff161115610677576040517f08c379a000000000000000000000000000000000000000000000000000000000815260206004820152603f60248201527f6372656174654f666665722066696e646572732066656520627073206d75737460448201527f206265206c657373207468616e206f7220657175616c20746f20313030303000606482015260840161053f565b84518751146106e2576040517f08c379a000000000000000000000000000000000000000000000000000000000815260206004820152601e60248201527f556e657175616c206c656e6774687320666f7220706172616d65746572730000604482015260640161053f565b835185511461074d576040517f08c379a000000000000000000000000000000000000000000000000000000000815260206004820152601e60248201527f556e657175616c206c656e6774687320666f7220706172616d65746572730000604482015260640161053f565b85518451146107b8576040517f08c379a000000000000000000000000000000000000000000000000000000000815260206004820152601e60248201527f556e657175616c206c656e6774687320666f7220706172616d65746572730000604482015260640161053f565b60005b86518110156108f6578681815181106107d6576107d661453d565b6020026020010151156108245761081f8682815181106107f8576107f861453d565b60200260200101518983815181106108125761081261453d565b6020026020010151612dca565b6108e4565b8481815181106108365761083661453d565b6020026020010151600014156108a8576040517f08c379a000000000000000000000000000000000000000000000000000000000815260206004820152601860248201527f496e76616c696420616d6f756e7420666f722045524332300000000000000000604482015260640161053f565b6108e48582815181106108bd576108bd61453d565b60200260200101518983815181106108d7576108d761453d565b6020026020010151612eff565b806108ee8161459b565b9150506107bb565b506003600081546109069061459b565b909155506040805160608101825233815260208082018a815261ffff87168385015273ffffffffffffffffffffffffffffffffffffffff8d81166000908152600484528581208e825284528581206003548252845294909420835181547fffffffffffffffffffffffff00000000000000000000000000000000000000001695169490941784555180519293926109a39260018501920190613d1b565b5060409190910151600290910180547fffffffffffffffffffffffffffffffffffffffffffffffffffffffffffff00001661ffff90921691909117905560005b8751811015610c74576005600060035481526020019081526020016000206000898381518110610a1557610a1561453d565b60209081029190910181015173ffffffffffffffffffffffffffffffffffffffff1682528101919091526040016000205460ff1615610ab0576040517f08c379a000000000000000000000000000000000000000000000000000000000815260206004820181905260248201527f53616d6520746f6b656e20616464726573732063616e6e6f7420726570656174604482015260640161053f565b6040518060a00160405280600115158152602001888381518110610ad657610ad661453d565b602002602001015115158152602001878381518110610af757610af761453d565b60200260200101518152602001868381518110610b1657610b1661453d565b60200260200101518152602001898381518110610b3557610b3561453d565b602002602001015173ffffffffffffffffffffffffffffffffffffffff1681525060056000600354815260200190815260200160002060008a8481518110610b7f57610b7f61453d565b60209081029190910181015173ffffffffffffffffffffffffffffffffffffffff908116835282820193909352604091820160002084518154928601517fffffffffffffffffffffffffffffffffffffffffffffffffffffffffffff00009093169015157fffffffffffffffffffffffffffffffffffffffffffffffffffffffffffff00ff16176101009215159290920291909117815590830151600182015560608301516002820155608090920151600390920180547fffffffffffffffffffffffff0000000000000000000000000000000000000000169290911691909117905580610c6c8161459b565b9150506109e3565b5073ffffffffffffffffffffffffffffffffffffffff891660008181526006602090815260408083208c845282528083206003805482546001810184559286528486209092019190915554848452600483528184208d8552835281842081855290925291829020915190928b9290917f2a9ad26059bc42ee2bcc5fa0355c70c01df9357a43043885345493d71490399c91610d0e9161465a565b60405180910390a450506003546001600055979650505050505050565b600054600114610d97576040517f08c379a000000000000000000000000000000000000000000000000000000000815260206004820152600a60248201527f5245454e5452414e435900000000000000000000000000000000000000000000604482015260640161053f565b6002600090815573ffffffffffffffffffffffffffffffffffffffff8085168252600460209081526040808420868552825280842085855282528084208151606081018352815490941684526001810180548351818602810186019094528084529193858101939290830182828015610e4657602002820191906000526020600020905b815473ffffffffffffffffffffffffffffffffffffffff168152600190910190602001808311610e1b575b50505091835250506002919091015461ffff16602090910152805190915073ffffffffffffffffffffffffffffffffffffffff163314610ee2576040517f08c379a000000000000000000000000000000000000000000000000000000000815260206004820152601960248201527f63616e63656c4f66666572206d757374206265206d616b657200000000000000604482015260640161053f565b60005b8160200151518110156111665760056000848152602001908152602001600020600083602001518381518110610f1d57610f1d61453d565b60209081029190910181015173ffffffffffffffffffffffffffffffffffffffff16825281019190915260400160002054610100900460ff16610ffd57610ff8826000015160056000868152602001908152602001600020600085602001518581518110610f8d57610f8d61453d565b602002602001015173ffffffffffffffffffffffffffffffffffffffff1673ffffffffffffffffffffffffffffffffffffffff1681526020019081526020016000206002015484602001518481518110610fe957610fe961453d565b60200260200101516000613252565b611099565b6110998260000151600560008681526020019081526020016000206000856020015185815181106110305761103061453d565b602002602001015173ffffffffffffffffffffffffffffffffffffffff1673ffffffffffffffffffffffffffffffffffffffff168152602001908152602001600020600101548460200151848151811061108c5761108c61453d565b60200260200101516134a2565b600560008481526020019081526020016000206000836020015183815181106110c4576110c461453d565b60209081029190910181015173ffffffffffffffffffffffffffffffffffffffff168252810191909152604001600090812080547fffffffffffffffffffffffffffffffffffffffffffffffffffffffffffff000016815560018101829055600281019190915560030180547fffffffffffffffffffffffff00000000000000000000000000000000000000001690558061115e8161459b565b915050610ee5565b5081838573ffffffffffffffffffffffffffffffffffffffff167f403cfdd574ae2e90a734c97b1c21e6d82d6a956cacdec745eea11dc50d433e72846040516111af91906146ef565b60405180910390a473ffffffffffffffffffffffffffffffffffffffff841660009081526004602090815260408083208684528252808320858452909152812080547fffffffffffffffffffffffff0000000000000000000000000000000000000000168155906112236001830182613da5565b5060020180547fffffffffffffffffffffffffffffffffffffffffffffffffffffffffffff0000169055505060016000555050565b7f150b7a02000000000000000000000000000000000000000000000000000000005b949350505050565b6000546001146112ee576040517f08c379a000000000000000000000000000000000000000000000000000000000815260206004820152600a60248201527f5245454e5452414e435900000000000000000000000000000000000000000000604482015260640161053f565b60026000558551869060051015611387576040517f08c379a000000000000000000000000000000000000000000000000000000000815260206004820152602660248201527f4f66666572206d616465206f6e206d6f726520746f6b656e73207468616e206160448201527f6c6c6f7765640000000000000000000000000000000000000000000000000000606482015260840161053f565b73ffffffffffffffffffffffffffffffffffffffff808b1660009081526004602090815260408083208d845282528083208c84528252808320815160608101835281549095168552600181018054835181860281018601909452808452949594919385810193929083018282801561143557602002820191906000526020600020905b815473ffffffffffffffffffffffffffffffffffffffff16815260019091019060200180831161140a575b50505091835250506002919091015461ffff16602090910152805190915073ffffffffffffffffffffffffffffffffffffffff166114cf576040517f08c379a000000000000000000000000000000000000000000000000000000000815260206004820152601e60248201527f66696c6c4f66666572206d75737420626520616374697665206f666665720000604482015260640161053f565b6040517f6352211e000000000000000000000000000000000000000000000000000000008152600481018b9052339073ffffffffffffffffffffffffffffffffffffffff8d1690636352211e90602401602060405180830381865afa15801561153c573d6000803e3d6000fd5b505050506040513d601f19601f820116820180604052508101906115609190614702565b73ffffffffffffffffffffffffffffffffffffffff16146115dd576040517f08c379a000000000000000000000000000000000000000000000000000000000815260206004820152601d60248201527f66696c6c4f66666572206d75737420626520746f6b656e206f776e6572000000604482015260640161053f565b87518160200151511461164c576040517f08c379a000000000000000000000000000000000000000000000000000000000815260206004820181905260248201527f4f6666657220746f6b656e73206c656e6774682073686f756c64206d61746368604482015260640161053f565b60208101515186146116ba576040517f08c379a000000000000000000000000000000000000000000000000000000000815260206004820181905260248201527f4f6666657220746f6b656e73206c656e6774682073686f756c64206d61746368604482015260640161053f565b6020810151518414611728576040517f08c379a000000000000000000000000000000000000000000000000000000000815260206004820181905260248201527f4f6666657220746f6b656e73206c656e6774682073686f756c64206d61746368604482015260640161053f565b60005b8851811015611abc57600560008b815260200190815260200160002060008a838151811061175b5761175b61453d565b60209081029190910181015173ffffffffffffffffffffffffffffffffffffffff1682528101919091526040016000205460ff1661181b576040517f08c379a000000000000000000000000000000000000000000000000000000000815260206004820152602f60248201527f66696c6c4f66666572205f6f66666572546f6b656e416464726573736573206d60448201527f757374206d61746368206f666665720000000000000000000000000000000000606482015260840161053f565b600560008b815260200190815260200160002060008a83815181106118425761184261453d565b60209081029190910181015173ffffffffffffffffffffffffffffffffffffffff16825281019190915260400160002054610100900460ff16611997578585828181106118915761189161453d565b90506020020135600560008c815260200190815260200160002060008b84815181106118bf576118bf61453d565b602002602001015173ffffffffffffffffffffffffffffffffffffffff1673ffffffffffffffffffffffffffffffffffffffff1681526020019081526020016000206002015414611992576040517f08c379a000000000000000000000000000000000000000000000000000000000815260206004820152602360248201527f66696c6c4f66666572205f616d6f756e7473206d757374206d61746368206f6660448201527f6665720000000000000000000000000000000000000000000000000000000000606482015260840161053f565b611aaa565b8787828181106119a9576119a961453d565b90506020020135600560008c815260200190815260200160002060008b84815181106119d7576119d761453d565b602002602001015173ffffffffffffffffffffffffffffffffffffffff1673ffffffffffffffffffffffffffffffffffffffff1681526020019081526020016000206001015414611aaa576040517f08c379a000000000000000000000000000000000000000000000000000000000815260206004820152602960248201527f66696c6c4f66666572205f6f66666572546f6b656e496473206d757374206d6160448201527f746368206f666665720000000000000000000000000000000000000000000000606482015260840161053f565b80611ab48161459b565b91505061172b565b5060005b8851811015611db65760008a81526005602052604081208a5182908c9085908110611aed57611aed61453d565b60209081029190910181015173ffffffffffffffffffffffffffffffffffffffff16825281019190915260400160002054610100900460ff16611c6957611bbd8d8d600560008f815260200190815260200160002060008e8781518110611b5657611b5661453d565b602002602001015173ffffffffffffffffffffffffffffffffffffffff1673ffffffffffffffffffffffffffffffffffffffff168152602001908152602001600020600201548d8681518110611bae57611bae61453d565b602002602001015160006135b2565b5080915050611be5818b8481518110611bd857611bd861453d565b60200260200101516136b8565b905073ffffffffffffffffffffffffffffffffffffffff851615611c4d576000612710846040015161ffff1683611c1c919061471f565b611c26919061475c565b9050611c3f86828d8681518110610fe957610fe961453d565b611c498183614797565b9150505b611c6433828c8581518110610fe957610fe961453d565b611cec565b611cec33600560008e815260200190815260200160002060008d8681518110611c9457611c9461453d565b602002602001015173ffffffffffffffffffffffffffffffffffffffff1673ffffffffffffffffffffffffffffffffffffffff168152602001908152602001600020600101548c858151811061108c5761108c61453d565b600560008c815260200190815260200160002060008b8481518110611d1357611d1361453d565b60209081029190910181015173ffffffffffffffffffffffffffffffffffffffff168252810191909152604001600090812080547fffffffffffffffffffffffffffffffffffffffffffffffffffffffffffff000016815560018101829055600281019190915560030180547fffffffffffffffffffffffff00000000000000000000000000000000000000001690555080611dae8161459b565b915050611ac0565b5080516040517f15dacbea00000000000000000000000000000000000000000000000000000000815273ffffffffffffffffffffffffffffffffffffffff8d811660048301523360248301529182166044820152606481018c90527f0000000000000000000000000000000000000000000000000000000000000000909116906315dacbea90608401600060405180830381600087803b158015611e5957600080fd5b505af1158015611e6d573d6000803e3d6000fd5b50505050888a8c73ffffffffffffffffffffffffffffffffffffffff167f50aae555cb82d46d9186b01ef43c257810842f241378af5317ebc63f15dc3ff0338786604051611ebd939291906147ae565b60405180910390a473ffffffffffffffffffffffffffffffffffffffff8b1660009081526004602090815260408083208d845282528083208c8452909152812080547fffffffffffffffffffffffff000000000000000000000000000000000000000016815590611f316001830182613da5565b5060020180547fffffffffffffffffffffffffffffffffffffffffffffffffffffffffffff000016905550506001600055505050505050505050565b6000333014611ffe576040517f08c379a000000000000000000000000000000000000000000000000000000000815260206004820152602d60248201527f5f68616e646c65526f79616c7479456e67696e655061796f7574206f6e6c792060448201527f73656c662063616c6c61626c6500000000000000000000000000000000000000606482015260840161053f565b6001546040517ff533b80200000000000000000000000000000000000000000000000000000000815273ffffffffffffffffffffffffffffffffffffffff87811660048301526024820187905260448201869052600092839291169063f533b802906064016000604051808303816000875af1158015612082573d6000803e3d6000fd5b505050506040513d6000823e601f3d9081017fffffffffffffffffffffffffffffffffffffffffffffffffffffffffffffffe01682016040526120c8919081019061484b565b81519193509150806120df5785935050505061127a565b85600080805b84811015612200578681815181106120ff576120ff61453d565b6020026020010151925085818151811061211b5761211b61453d565b602002602001015191508184101561218f576040517f08c379a000000000000000000000000000000000000000000000000000000000815260206004820152600960248201527f696e736f6c76656e740000000000000000000000000000000000000000000000604482015260640161053f565b61219d83838b61c350613252565b6040805173ffffffffffffffffffffffffffffffffffffffff8581168252602082018590528d92908f16917f866e6ef8682ddf5f1025e64dfdb45527077f7be70fa9ef680b7ffd8cf4ab9c50910160405180910390a392819003926001016120e5565b50919a9950505050505050505050565b3373ffffffffffffffffffffffffffffffffffffffff7f000000000000000000000000000000000000000000000000000000000000000016146122d5576040517f08c379a000000000000000000000000000000000000000000000000000000000815260206004820152602660248201527f736574526f79616c7479456e67696e6541646472657373206f6e6c792072656760448201527f6973747261720000000000000000000000000000000000000000000000000000606482015260840161053f565b6122ff817fcb23f81600000000000000000000000000000000000000000000000000000000613858565b61238b576040517f08c379a000000000000000000000000000000000000000000000000000000000815260206004820152603d60248201527f736574526f79616c7479456e67696e6541646472657373206d757374206d617460448201527f63682049526f79616c7479456e67696e65563120696e74657266616365000000606482015260840161053f565b600180547fffffffffffffffffffffffff00000000000000000000000000000000000000001673ffffffffffffffffffffffffffffffffffffffff92909216919091179055565b600660205282600052604060002060205281600052604060002081815481106123fa57600080fd5b9060005260206000200160009250925050505481565b60005460011461247c576040517f08c379a000000000000000000000000000000000000000000000000000000000815260206004820152600a60248201527f5245454e5452414e435900000000000000000000000000000000000000000000604482015260640161053f565b6002600055604080516020808802828101820190935287825290918891889182918501908490808284376000920191909152505082516005101591506125469050576040517f08c379a000000000000000000000000000000000000000000000000000000000815260206004820152602660248201527f4f66666572206d616465206f6e206d6f726520746f6b656e73207468616e206160448201527f6c6c6f7765640000000000000000000000000000000000000000000000000000606482015260840161053f565b73ffffffffffffffffffffffffffffffffffffffff808b1660009081526004602090815260408083208d845282528083208c84529091528120805490921633146125ec576040517f08c379a000000000000000000000000000000000000000000000000000000000815260206004820152601c60248201527f7365744f66666572416d6f756e74206d757374206265206d616b657200000000604482015260640161053f565b878614612655576040517f08c379a000000000000000000000000000000000000000000000000000000000815260206004820152601e60248201527f556e657175616c206c656e6774687320666f7220706172616d65746572730000604482015260640161053f565b8584146126be576040517f08c379a000000000000000000000000000000000000000000000000000000000815260206004820152601e60248201527f556e657175616c206c656e6774687320666f7220706172616d65746572730000604482015260640161053f565b60005b88811015612cd95760008b8152600560205260408120908b8b848181106126ea576126ea61453d565b90506020020160208101906126ff919061440a565b73ffffffffffffffffffffffffffffffffffffffff16815260208101919091526040016000205460ff166127b5576040517f08c379a000000000000000000000000000000000000000000000000000000000815260206004820152602760248201527f496e697469616c20736574206f6620746f6b656e732063616e6e6f742062652060448201527f6368616e67656400000000000000000000000000000000000000000000000000606482015260840161053f565b60008b8152600560205260408120908b8b848181106127d6576127d661453d565b90506020020160208101906127eb919061440a565b73ffffffffffffffffffffffffffffffffffffffff168152602081019190915260400160002054610100900460ff16612b1b5760008b8152600560205260408120818c8c8581811061283f5761283f61453d565b9050602002016020810190612854919061440a565b73ffffffffffffffffffffffffffffffffffffffff1673ffffffffffffffffffffffffffffffffffffffff16815260200190815260200160002060020154905060008787848181106128a8576128a861453d565b905060200201351161293c576040517f08c379a000000000000000000000000000000000000000000000000000000000815260206004820152603260248201527f7365744f66666572416d6f756e7420696e76616c6964205f616d6f756e74732060448201527f616e64205f6f66666572546f6b656e4964730000000000000000000000000000606482015260840161053f565b8087878481811061294f5761294f61453d565b905060200201351461296057600192505b808787848181106129735761297361453d565b905060200201351115612a3c576000818888858181106129955761299561453d565b905060200201350390506129cf818d8d868181106129b5576129b561453d565b90506020020160208101906129ca919061440a565b612eff565b60008d815260056020526040812082918e8e878181106129f1576129f161453d565b9050602002016020810190612a06919061440a565b73ffffffffffffffffffffffffffffffffffffffff16815260208101919091526040016000206002018054909101905550612b15565b6000878784818110612a5057612a5061453d565b87546020909102929092013584039250612aab9173ffffffffffffffffffffffffffffffffffffffff169050828e8e87818110612a8f57612a8f61453d565b9050602002016020810190612aa4919061440a565b6000613252565b60008d815260056020526040812082918e8e87818110612acd57612acd61453d565b9050602002016020810190612ae2919061440a565b73ffffffffffffffffffffffffffffffffffffffff16815260208101919091526040016000206002018054919091039055505b50612cc7565b60008b8152600560205260408120818c8c85818110612b3c57612b3c61453d565b9050602002016020810190612b51919061440a565b73ffffffffffffffffffffffffffffffffffffffff1673ffffffffffffffffffffffffffffffffffffffff16815260200190815260200160002060010154905080898984818110612ba457612ba461453d565b9050602002013514612bb557600192505b612bfd898984818110612bca57612bca61453d565b905060200201358c8c85818110612be357612be361453d565b9050602002016020810190612bf8919061440a565b612dca565b8354612c469073ffffffffffffffffffffffffffffffffffffffff16828d8d86818110612c2c57612c2c61453d565b9050602002016020810190612c41919061440a565b6134a2565b888883818110612c5857612c5861453d565b90506020020135600560008e815260200190815260200160002060008d8d86818110612c8657612c8661453d565b9050602002016020810190612c9b919061440a565b73ffffffffffffffffffffffffffffffffffffffff168152602081019190915260400160002060010155505b80612cd18161459b565b9150506126c1565b5080612d67576040517f08c379a000000000000000000000000000000000000000000000000000000000815260206004820152603260248201527f7365744f66666572416d6f756e7420696e76616c6964205f616d6f756e74732060448201527f616e64205f6f66666572546f6b656e4964730000000000000000000000000000606482015260840161053f565b898b8d73ffffffffffffffffffffffffffffffffffffffff167fd408c773417f775556533bbd93a5b00e27773984fc7a4433ffc6ef9f18ab5fea85604051612daf919061465a565b60405180910390a45050600160005550505050505050505050565b73ffffffffffffffffffffffffffffffffffffffff8116612e47576040517f08c379a000000000000000000000000000000000000000000000000000000000815260206004820152601660248201527f45524337323120746f6b656e2061647265737328302900000000000000000000604482015260640161053f565b6040517fd9fc4b6100000000000000000000000000000000000000000000000000000000815273ffffffffffffffffffffffffffffffffffffffff8281166004830152336024830152306044830152606482018490527f0000000000000000000000000000000000000000000000000000000000000000169063d9fc4b6190608401600060405180830381600087803b158015612ee357600080fd5b505af1158015612ef7573d6000803e3d6000fd5b505050505050565b73ffffffffffffffffffffffffffffffffffffffff8116612fae5781341015612faa576040517f08c379a000000000000000000000000000000000000000000000000000000000815260206004820152603b60248201527f5f68616e646c65496e636f6d696e675472616e73666572206d73672076616c7560448201527f65206c657373207468616e20657870656374656420616d6f756e740000000000606482015260840161053f565b5050565b6040517f70a08231000000000000000000000000000000000000000000000000000000008152306004820152819060009073ffffffffffffffffffffffffffffffffffffffff8316906370a0823190602401602060405180830381865afa15801561301d573d6000803e3d6000fd5b505050506040513d601f19601f820116820180604052508101906130419190614910565b6040517fd9fc4b6100000000000000000000000000000000000000000000000000000000815273ffffffffffffffffffffffffffffffffffffffff8581166004830152336024830152306044830152606482018790529192507f00000000000000000000000000000000000000000000000000000000000000009091169063d9fc4b6190608401600060405180830381600087803b1580156130e257600080fd5b505af11580156130f6573d6000803e3d6000fd5b50506040517f70a082310000000000000000000000000000000000000000000000000000000081523060048201526000925073ffffffffffffffffffffffffffffffffffffffff851691506370a0823190602401602060405180830381865afa158015613167573d6000803e3d6000fd5b505050506040513d601f19601f8201168201806040525081019061318b9190614910565b9050806131988684614929565b1461324b576040517f08c379a000000000000000000000000000000000000000000000000000000000815260206004820152604c60248201527f5f68616e646c65496e636f6d696e675472616e7366657220746f6b656e20747260448201527f616e736665722063616c6c20646964206e6f74207472616e736665722065787060648201527f656374656420616d6f756e740000000000000000000000000000000000000000608482015260a40161053f565b5050505050565b821580613273575073ffffffffffffffffffffffffffffffffffffffff8416155b1561327d5761349c565b73ffffffffffffffffffffffffffffffffffffffff821661347b5782471015613328576040517f08c379a000000000000000000000000000000000000000000000000000000000815260206004820152602160248201527f5f68616e646c654f7574676f696e675472616e7366657220696e736f6c76656e60448201527f7400000000000000000000000000000000000000000000000000000000000000606482015260840161053f565b600081158061333657505a82115b6133405781613342565b5a5b905060008573ffffffffffffffffffffffffffffffffffffffff16858390604051600060405180830381858888f193505050503d80600081146133a1576040519150601f19603f3d011682016040523d82523d6000602084013e6133a6565b606091505b5050905080613474577f000000000000000000000000000000000000000000000000000000000000000073ffffffffffffffffffffffffffffffffffffffff1663d0e30db0866040518263ffffffff1660e01b81526004016000604051808303818588803b15801561341757600080fd5b505af115801561342b573d6000803e3d6000fd5b5061347493505073ffffffffffffffffffffffffffffffffffffffff7f00000000000000000000000000000000000000000000000000000000000000001691508890508761387b565b505061349c565b61349c73ffffffffffffffffffffffffffffffffffffffff8316858561387b565b50505050565b73ffffffffffffffffffffffffffffffffffffffff811661351f576040517f08c379a000000000000000000000000000000000000000000000000000000000815260206004820152601660248201527f45524337323120746f6b656e2061647265737328302900000000000000000000604482015260640161053f565b6040517f42842e0e00000000000000000000000000000000000000000000000000000000815230600482015273ffffffffffffffffffffffffffffffffffffffff8481166024830152604482018490528216906342842e0e90606401600060405180830381600087803b15801561359557600080fd5b505af11580156135a9573d6000803e3d6000fd5b50505050505050565b600080808315806135c257505a84115b6135cc57836135ce565b5a5b6040517f9128c22c00000000000000000000000000000000000000000000000000000000815273ffffffffffffffffffffffffffffffffffffffff808b166004830152602482018a905260448201899052871660648201529091503090639128c22c90839060840160206040518083038160008887f193505050508015613690575060408051601f3d9081017fffffffffffffffffffffffffffffffffffffffffffffffffffffffffffffffe016820190925261368d91810190614910565b60015b6136a15785600092509250506136ae565b9250600191506136ae9050565b9550959350505050565b6040517f61b485f600000000000000000000000000000000000000000000000000000000815230600482015260248101839052600090819073ffffffffffffffffffffffffffffffffffffffff7f000000000000000000000000000000000000000000000000000000000000000016906361b485f690604401602060405180830381865afa15801561374e573d6000803e3d6000fd5b505050506040513d601f19601f820116820180604052508101906137729190614910565b9050806137825783915050613852565b6040517f86ab6fb90000000000000000000000000000000000000000000000000000000081523060048201526000907f000000000000000000000000000000000000000000000000000000000000000073ffffffffffffffffffffffffffffffffffffffff16906386ab6fb9906024016040805180830381865afa15801561380e573d6000803e3d6000fd5b505050506040513d601f19601f820116820180604052508101906138329190614941565b91505061384381838661c350613252565b61384d8286614797565b925050505b92915050565b60006138638361390d565b801561387457506138748383613971565b9392505050565b6040805173ffffffffffffffffffffffffffffffffffffffff8416602482015260448082018490528251808303909101815260649091019091526020810180517bffffffffffffffffffffffffffffffffffffffffffffffffffffffff167fa9059cbb00000000000000000000000000000000000000000000000000000000179052613908908490613aad565b505050565b6000613939827f01ffc9a700000000000000000000000000000000000000000000000000000000613971565b8015613852575061396a827fffffffff00000000000000000000000000000000000000000000000000000000613971565b1592915050565b604080517fffffffff00000000000000000000000000000000000000000000000000000000831660248083019190915282518083039091018152604490910182526020810180517bffffffffffffffffffffffffffffffffffffffffffffffffffffffff167f01ffc9a7000000000000000000000000000000000000000000000000000000001790529051600091908290819073ffffffffffffffffffffffffffffffffffffffff87169061753090613a2b908690614970565b6000604051808303818686fa925050503d8060008114613a67576040519150601f19603f3d011682016040523d82523d6000602084013e613a6c565b606091505b5091509150602081511015613a875760009350505050613852565b818015613aa3575080806020019051810190613aa3919061498c565b9695505050505050565b6000613b0f826040518060400160405280602081526020017f5361666545524332303a206c6f772d6c6576656c2063616c6c206661696c65648152508573ffffffffffffffffffffffffffffffffffffffff16613bb99092919063ffffffff16565b8051909150156139085780806020019051810190613b2d919061498c565b613908576040517f08c379a000000000000000000000000000000000000000000000000000000000815260206004820152602a60248201527f5361666545524332303a204552433230206f7065726174696f6e20646964206e60448201527f6f74207375636365656400000000000000000000000000000000000000000000606482015260840161053f565b606061127a84846000858573ffffffffffffffffffffffffffffffffffffffff85163b613c42576040517f08c379a000000000000000000000000000000000000000000000000000000000815260206004820152601d60248201527f416464726573733a2063616c6c20746f206e6f6e2d636f6e7472616374000000604482015260640161053f565b6000808673ffffffffffffffffffffffffffffffffffffffff168587604051613c6b9190614970565b60006040518083038185875af1925050503d8060008114613ca8576040519150601f19603f3d011682016040523d82523d6000602084013e613cad565b606091505b5091509150613cbd828286613cc8565b979650505050505050565b60608315613cd7575081613874565b825115613ce75782518084602001fd5b816040517f08c379a000000000000000000000000000000000000000000000000000000000815260040161053f9190613e07565b828054828255906000526020600020908101928215613d95579160200282015b82811115613d9557825182547fffffffffffffffffffffffff00000000000000000000000000000000000000001673ffffffffffffffffffffffffffffffffffffffff909116178255602090920191600190910190613d3b565b50613da1929150613dc6565b5090565b5080546000825590600052602060002090810190613dc39190613dc6565b50565b5b80821115613da15760008155600101613dc7565b60005b83811015613df6578181015183820152602001613dde565b8381111561349c5750506000910152565b6020815260008251806020840152613e26816040850160208701613ddb565b601f017fffffffffffffffffffffffffffffffffffffffffffffffffffffffffffffffe0169190910160400192915050565b73ffffffffffffffffffffffffffffffffffffffff81168114613dc357600080fd5b8035613e8581613e58565b919050565b7f4e487b7100000000000000000000000000000000000000000000000000000000600052604160045260246000fd5b604051601f82017fffffffffffffffffffffffffffffffffffffffffffffffffffffffffffffffe016810167ffffffffffffffff81118282101715613f0057613f00613e8a565b604052919050565b600067ffffffffffffffff821115613f2257613f22613e8a565b5060051b60200190565b600082601f830112613f3d57600080fd5b81356020613f52613f4d83613f08565b613eb9565b82815260059290921b84018101918181019086841115613f7157600080fd5b8286015b84811015613f95578035613f8881613e58565b8352918301918301613f75565b509695505050505050565b8015158114613dc357600080fd5b600082601f830112613fbf57600080fd5b81356020613fcf613f4d83613f08565b82815260059290921b84018101918181019086841115613fee57600080fd5b8286015b84811015613f9557803561400581613fa0565b8352918301918301613ff2565b600082601f83011261402357600080fd5b81356020614033613f4d83613f08565b82815260059290921b8401810191818101908684111561405257600080fd5b8286015b84811015613f955780358352918301918301614056565b61ffff81168114613dc357600080fd5b8035613e858161406d565b600080600080600080600060e0888a0312156140a357600080fd5b6140ac88613e7a565b965060208801359550604088013567ffffffffffffffff808211156140d057600080fd5b6140dc8b838c01613f2c565b965060608a01359150808211156140f257600080fd5b6140fe8b838c01613fae565b955060808a013591508082111561411457600080fd5b6141208b838c01614012565b945060a08a013591508082111561413657600080fd5b506141438a828b01614012565b92505061415260c0890161407d565b905092959891949750929550565b60008060006060848603121561417557600080fd5b833561418081613e58565b95602085013595506040909401359392505050565b600080600080608085870312156141ab57600080fd5b84356141b681613e58565b93506020858101356141c781613e58565b935060408601359250606086013567ffffffffffffffff808211156141eb57600080fd5b818801915088601f8301126141ff57600080fd5b81358181111561421157614211613e8a565b614241847fffffffffffffffffffffffffffffffffffffffffffffffffffffffffffffffe0601f84011601613eb9565b9150808252898482850101111561425757600080fd5b808484018584013760008482840101525080935050505092959194509250565b6000806040838503121561428a57600080fd5b82359150602083013561429c81613e58565b809150509250929050565b60008083601f8401126142b957600080fd5b50813567ffffffffffffffff8111156142d157600080fd5b6020830191508360208260051b85010111156142ec57600080fd5b9250929050565b600080600080600080600080600060e08a8c03121561431157600080fd5b893561431c81613e58565b985060208a0135975060408a0135965060608a013567ffffffffffffffff8082111561434757600080fd5b6143538d838e01613f2c565b975060808c013591508082111561436957600080fd5b6143758d838e016142a7565b909750955060a08c013591508082111561438e57600080fd5b5061439b8c828d016142a7565b90945092505060c08a01356143af81613e58565b809150509295985092959850929598565b600080600080608085870312156143d657600080fd5b84356143e181613e58565b9350602085013592506040850135915060608501356143ff81613e58565b939692955090935050565b60006020828403121561441c57600080fd5b813561387481613e58565b600080600080600080600080600060c08a8c03121561444557600080fd5b893561445081613e58565b985060208a0135975060408a0135965060608a013567ffffffffffffffff8082111561447b57600080fd5b6144878d838e016142a7565b909850965060808c01359150808211156144a057600080fd5b6144ac8d838e016142a7565b909650945060a08c01359150808211156144c557600080fd5b506144d28c828d016142a7565b915080935050809150509295985092959850929598565b600181811c908216806144fd57607f821691505b60208210811415614537577f4e487b7100000000000000000000000000000000000000000000000000000000600052602260045260246000fd5b50919050565b7f4e487b7100000000000000000000000000000000000000000000000000000000600052603260045260246000fd5b7f4e487b7100000000000000000000000000000000000000000000000000000000600052601160045260246000fd5b60007fffffffffffffffffffffffffffffffffffffffffffffffffffffffffffffffff8214156145cd576145cd61456c565b5060010190565b60006060830173ffffffffffffffffffffffffffffffffffffffff8084541685526001808501602060608189015284825480875260808a01915083600052826000209650600093505b8084101561463c5786548616825295840195928401929082019061461d565b5061ffff60028901541660408a015280965050505050505092915050565b60208152600061387460208301846145d4565b60006060830173ffffffffffffffffffffffffffffffffffffffff8084511685526020808501516060828801528381518086526080890191508383019550600092505b808310156146d2578551851682529483019460019290920191908301906146b0565b5061ffff6040880151166040890152809550505050505092915050565b602081526000613874602083018461466d565b60006020828403121561471457600080fd5b815161387481613e58565b6000817fffffffffffffffffffffffffffffffffffffffffffffffffffffffffffffffff04831182151516156147575761475761456c565b500290565b600082614792577f4e487b7100000000000000000000000000000000000000000000000000000000600052601260045260246000fd5b500490565b6000828210156147a9576147a961456c565b500390565b600073ffffffffffffffffffffffffffffffffffffffff8086168352808516602084015250606060408301526147e7606083018461466d565b95945050505050565b600082601f83011261480157600080fd5b81516020614811613f4d83613f08565b82815260059290921b8401810191818101908684111561483057600080fd5b8286015b84811015613f955780518352918301918301614834565b6000806040838503121561485e57600080fd5b825167ffffffffffffffff8082111561487657600080fd5b818501915085601f83011261488a57600080fd5b8151602061489a613f4d83613f08565b82815260059290921b840181019181810190898411156148b957600080fd5b948201945b838610156148e05785516148d181613e58565b825294820194908201906148be565b918801519196509093505050808211156148f957600080fd5b50614906858286016147f0565b9150509250929050565b60006020828403121561492257600080fd5b5051919050565b6000821982111561493c5761493c61456c565b500190565b6000806040838503121561495457600080fd5b825161495f8161406d565b602084015190925061429c81613e58565b60008251614982818460208701613ddb565b9190910192915050565b60006020828403121561499e57600080fd5b815161387481613fa056fea26469706673582212205b9513ad4856352cb64b8d27c77d80588d9007afaf6a0fb5d4cd03c4d48fcafd64736f6c634300080a0033",
    "linkReferences": {}
  },
  "methodIdentifiers": {
    "_handleRoyaltyEnginePayout(address,uint256,uint256,address)": "9128c22c",
    "cancelOffer(address,uint256,uint256)": "0e030d6a",
    "createOffer(address,uint256,address[],bool[],uint256[],uint256[],uint16)": "08ccf071",
    "erc20TransferHelper()": "8f9d3251",
    "erc721TransferHelper()": "f7cd1d9b",
    "fillOffer(address,uint256,uint256,address[],uint256[],uint256[],address)": "90e7f4d8",
    "name()": "06fdde03",
    "offerCount()": "1115c24d",
    "offerTokenOfferMap(uint256,address)": "3573cc5f",
    "offers(address,uint256,uint256)": "e3b43677",
    "offersForNFT(address,uint256,uint256)": "ebe46344",
    "onERC721Received(address,address,uint256,bytes)": "150b7a02",
    "registrar()": "2b20e397",
    "setOfferAmount(address,uint256,uint256,address[],uint256[],uint256[])": "eccb62db",
    "setRoyaltyEngineAddress(address)": "b249bb30"
  },
  "id": 11
}