{
  "abi": [
    {
      "inputs": [
        {
          "internalType": "address",
          "name": "_erc20TransferHelper",
          "type": "address"
        }
      ],
      "stateMutability": "nonpayable",
      "type": "constructor"
    },
    {
      "inputs": [],
      "name": "erc20TransferHelper",
      "outputs": [
        {
          "internalType": "contract ERC20TransferHelper",
          "name": "",
          "type": "address"
        }
      ],
      "stateMutability": "view",
      "type": "function"
    }
  ],
  "bytecode": {
    "object": "0x60a060405234801561001057600080fd5b5060405161013a38038061013a83398101604081905261002f91610040565b6001600160a01b0316608052610070565b60006020828403121561005257600080fd5b81516001600160a01b038116811461006957600080fd5b9392505050565b60805160b261008860003960006031015260b26000f3fe6080604052348015600f57600080fd5b506004361060285760003560e01c80638f9d325114602d575b600080fd5b60537f000000000000000000000000000000000000000000000000000000000000000081565b60405173ffffffffffffffffffffffffffffffffffffffff909116815260200160405180910390f3fea26469706673582212201e48497bc04dec05f57d6341058000f9e798b4df9f7a0a2f6541f64d249a03e364736f6c634300080a0033",
    "linkReferences": {}
  },
  "methodIdentifiers": {
    "erc20TransferHelper()": "8f9d3251"
  },
  "id": 4
}