{
  "abi": [
    {
      "inputs": [
        {
          "internalType": "address",
          "name": "_erc721TransferHelper",
          "type": "address"
        }
      ],
      "stateMutability": "nonpayable",
      "type": "constructor"
    },
    {
      "inputs": [],
      "name": "erc721TransferHelper",
      "outputs": [
        {
          "internalType": "contract ERC721TransferHelper",
          "name": "",
          "type": "address"
        }
      ],
      "stateMutability": "view",
      "type": "function"
    },
    {
      "inputs": [
        {
          "internalType": "address",
          "name": "",
          "type": "address"
        },
        {
          "internalType": "address",
          "name": "",
          "type": "address"
        },
        {
          "internalType": "uint256",
          "name": "",
          "type": "uint256"
        },
        {
          "internalType": "bytes",
          "name": "",
          "type": "bytes"
        }
      ],
      "name": "onERC721Received",
      "outputs": [
        {
          "internalType": "bytes4",
          "name": "",
          "type": "bytes4"
        }
      ],
      "stateMutability": "nonpayable",
      "type": "function"
    }
  ],
  "bytecode": {
    "object": "0x60a060405234801561001057600080fd5b5060405161030638038061030683398101604081905261002f91610040565b6001600160a01b0316608052610070565b60006020828403121561005257600080fd5b81516001600160a01b038116811461006957600080fd5b9392505050565b60805161027c61008a600039600060ad015261027c6000f3fe608060405234801561001057600080fd5b50600436106100365760003560e01c8063150b7a021461003b578063f7cd1d9b146100a8575b600080fd5b61007261004936600461014c565b7f150b7a0200000000000000000000000000000000000000000000000000000000949350505050565b6040517fffffffff0000000000000000000000000000000000000000000000000000000090911681526020015b60405180910390f35b6100cf7f000000000000000000000000000000000000000000000000000000000000000081565b60405173ffffffffffffffffffffffffffffffffffffffff909116815260200161009f565b803573ffffffffffffffffffffffffffffffffffffffff8116811461011857600080fd5b919050565b7f4e487b7100000000000000000000000000000000000000000000000000000000600052604160045260246000fd5b6000806000806080858703121561016257600080fd5b61016b856100f4565b9350610179602086016100f4565b925060408501359150606085013567ffffffffffffffff8082111561019d57600080fd5b818701915087601f8301126101b157600080fd5b8135818111156101c3576101c361011d565b604051601f82017fffffffffffffffffffffffffffffffffffffffffffffffffffffffffffffffe0908116603f011681019083821181831017156102095761020961011d565b816040528281528a602084870101111561022257600080fd5b8260208601602083013760006020848301015280955050505050509295919450925056fea264697066735822122084bca057b05c5eacf0452fb2fe5232d7ffec6fa5b20a1e551a5770f1f2f4ff0464736f6c634300080a0033",
    "linkReferences": {}
  },
  "methodIdentifiers": {
    "erc721TransferHelper()": "f7cd1d9b",
    "onERC721Received(address,address,uint256,bytes)": "150b7a02"
  },
  "id": 3
}