{
  "abi": [
    {
      "inputs": [
        {
          "internalType": "address",
          "name": "_erc721TransferHelper",
          "type": "address"
        },
        {
          "internalType": "address",
          "name": "_royaltyEngine",
          "type": "address"
        },
        {
          "internalType": "address",
          "name": "_protocolFeeSettings",
          "type": "address"
        },
        {
          "internalType": "address",
          "name": "_weth",
          "type": "address"
        }
      ],
      "stateMutability": "nonpayable",
      "type": "constructor"
    },
    {
      "anonymous": false,
      "inputs": [
        {
          "indexed": true,
          "internalType": "address",
          "name": "tokenContract",
          "type": "address"
        },
        {
          "indexed": true,
          "internalType": "uint256",
          "name": "tokenId",
          "type": "uint256"
        },
        {
          "indexed": false,
          "internalType": "address",
          "name": "seller",
          "type": "address"
        },
        {
          "indexed": false,
          "internalType": "uint256",
          "name": "price",
          "type": "uint256"
        }
      ],
      "name": "AskCanceled",
      "type": "event"
    },
    {
      "anonymous": false,
      "inputs": [
        {
          "indexed": true,
          "internalType": "address",
          "name": "tokenContract",
          "type": "address"
        },
        {
          "indexed": true,
          "internalType": "uint256",
          "name": "tokenId",
          "type": "uint256"
        },
        {
          "indexed": false,
          "internalType": "address",
          "name": "seller",
          "type": "address"
        },
        {
          "indexed": false,
          "internalType": "uint256",
          "name": "price",
          "type": "uint256"
        }
      ],
      "name": "AskCreated",
      "type": "event"
    },
    {
      "anonymous": false,
      "inputs": [
        {
          "indexed": true,
          "internalType": "address",
          "name": "tokenContract",
          "type": "address"
        },
        {
          "indexed": true,
          "internalType": "uint256",
          "name": "tokenId",
          "type": "uint256"
        },
        {
          "indexed": false,
          "internalType": "address",
          "name": "buyer",
          "type": "address"
        },
        {
          "indexed": false,
          "internalType": "address",
          "name": "seller",
          "type": "address"
        },
        {
          "indexed": false,
          "internalType": "uint256",
          "name": "price",
          "type": "uint256"
        }
      ],
      "name": "AskFilled",
      "type": "event"
    },
    {
      "anonymous": false,
      "inputs": [
        {
          "indexed": true,
          "internalType": "address",
          "name": "tokenContract",
          "type": "address"
        },
        {
          "indexed": true,
          "internalType": "uint256",
          "name": "tokenId",
          "type": "uint256"
        },
        {
          "indexed": false,
          "internalType": "address",
          "name": "seller",
          "type": "address"
        },
        {
          "indexed": false,
          "internalType": "uint256",
          "name": "price",
          "type": "uint256"
        }
      ],
      "name": "AskPriceUpdated",
      "type": "event"
    },
    {
      "anonymous": false,
      "inputs": [
        {
          "indexed": true,
          "internalType": "address",
          "name": "tokenContract",
          "type": "address"
        },
        {
          "indexed": true,
          "internalType": "uint256",
          "name": "tokenId",
          "type": "uint256"
        },
        {
          "indexed": false,
          "internalType": "address",
          "name": "recipient",
          "type": "address"
        },
        {
          "indexed": false,
          "internalType": "uint256",
          "name": "amount",
          "type": "uint256"
        }
      ],
      "name": "RoyaltyPayout",
      "type": "event"
    },
    {
      "inputs": [
        {
          "internalType": "address",
          "name": "_tokenContract",
          "type": "address"
        },
        {
          "internalType": "uint256",
          "name": "_tokenId",
          "type": "uint256"
        },
        {
          "internalType": "uint256",
          "name": "_amount",
          "type": "uint256"
        },
        {
          "internalType": "address",
          "name": "_payoutCurrency",
          "type": "address"
        }
      ],
      "name": "_handleRoyaltyEnginePayout",
      "outputs": [
        {
          "internalType": "uint256",
          "name": "",
          "type": "uint256"
        }
      ],
      "stateMutability": "payable",
      "type": "function"
    },
    {
      "inputs": [
        {
          "internalType": "address",
          "name": "",
          "type": "address"
        },
        {
          "internalType": "uint256",
          "name": "",
          "type": "uint256"
        }
      ],
      "name": "askForNFT",
      "outputs": [
        {
          "internalType": "address",
          "name": "seller",
          "type": "address"
        },
        {
          "internalType": "uint96",
          "name": "price",
          "type": "uint96"
        }
      ],
      "stateMutability": "view",
      "type": "function"
    },
    {
      "inputs": [
        {
          "internalType": "address",
          "name": "_tokenContract",
          "type": "address"
        },
        {
          "internalType": "uint256",
          "name": "_tokenId",
          "type": "uint256"
        }
      ],
      "name": "cancelAsk",
      "outputs": [],
      "stateMutability": "nonpayable",
      "type": "function"
    },
    {
      "inputs": [
        {
          "internalType": "address",
          "name": "_tokenContract",
          "type": "address"
        },
        {
          "internalType": "uint256",
          "name": "_tokenId",
          "type": "uint256"
        },
        {
          "internalType": "uint256",
          "name": "_price",
          "type": "uint256"
        }
      ],
      "name": "createAsk",
      "outputs": [],
      "stateMutability": "nonpayable",
      "type": "function"
    },
    {
      "inputs": [],
      "name": "erc721TransferHelper",
      "outputs": [
        {
          "internalType": "contract ERC721TransferHelper",
          "name": "",
          "type": "address"
        }
      ],
      "stateMutability": "view",
      "type": "function"
    },
    {
      "inputs": [
        {
          "internalType": "address",
          "name": "_tokenContract",
          "type": "address"
        },
        {
          "internalType": "uint256",
          "name": "_tokenId",
          "type": "uint256"
        }
      ],
      "name": "fillAsk",
      "outputs": [],
      "stateMutability": "payable",
      "type": "function"
    },
    {
      "inputs": [],
      "name": "name",
      "outputs": [
        {
          "internalType": "string",
          "name": "",
          "type": "string"
        }
      ],
      "stateMutability": "view",
      "type": "function"
    },
    {
      "inputs": [],
      "name": "registrar",
      "outputs": [
        {
          "internalType": "address",
          "name": "",
          "type": "address"
        }
      ],
      "stateMutability": "view",
      "type": "function"
    },
    {
      "inputs": [
        {
          "internalType": "address",
          "name": "_tokenContract",
          "type": "address"
        },
        {
          "internalType": "uint256",
          "name": "_tokenId",
          "type": "uint256"
        },
        {
          "internalType": "uint256",
          "name": "_price",
          "type": "uint256"
        }
      ],
      "name": "setAskPrice",
      "outputs": [],
      "stateMutability": "nonpayable",
      "type": "function"
    },
    {
      "inputs": [
        {
          "internalType": "address",
          "name": "_royaltyEngine",
          "type": "address"
        }
      ],
      "name": "setRoyaltyEngineAddress",
      "outputs": [],
      "stateMutability": "nonpayable",
      "type": "function"
    },
    {
      "inputs": [
        {
          "internalType": "bytes4",
          "name": "_interfaceId",
          "type": "bytes4"
        }
      ],
      "name": "supportsInterface",
      "outputs": [
        {
          "internalType": "bool",
          "name": "",
          "type": "bool"
        }
      ],
      "stateMutability": "pure",
      "type": "function"
    }
  ],
  "bytecode": {
    "object": "0x61010060405260016000553480156200001757600080fd5b5060405162002546380380620025468339810160408190526200003a916200024a565b6040518060400160405280600d81526020016c082e6d6e64086dee4ca408aa89609b1b815250838383876001600160a01b031663e3e606f06040518163ffffffff1660e01b8152600401602060405180830381865afa158015620000a2573d6000803e3d6000fd5b505050506040513d601f19601f82011682018060405250810190620000c89190620002b2565b6001600160a01b0316632b20e3976040518163ffffffff1660e01b8152600401602060405180830381865afa15801562000106573d6000803e3d6000fd5b505050506040513d601f19601f820116820180604052508101906200012c9190620002b2565b6001600160a01b03918216608052600180546001600160a01b0319169483169490941790935590811660c0521660a0528051620001719060029060208401906200018b565b5050506001600160a01b0390921660e05250620003169050565b8280546200019990620002d9565b90600052602060002090601f016020900481019282620001bd576000855562000208565b82601f10620001d857805160ff191683800117855562000208565b8280016001018555821562000208579182015b8281111562000208578251825591602001919060010190620001eb565b50620002169291506200021a565b5090565b5b808211156200021657600081556001016200021b565b6001600160a01b03811681146200024757600080fd5b50565b600080600080608085870312156200026157600080fd5b84516200026e8162000231565b6020860151909450620002818162000231565b6040860151909350620002948162000231565b6060860151909250620002a78162000231565b939692955090935050565b600060208284031215620002c557600080fd5b8151620002d28162000231565b9392505050565b600181811c90821680620002ee57607f821691505b602082108114156200031057634e487b7160e01b600052602260045260246000fd5b50919050565b60805160a05160c05160e0516121da6200036c600039600081816102e80152610ae701526000818161144e01526114fa01526000818161014c0152610e9c0152600081816116fc015261179401526121da6000f3fe6080604052600436106100bc5760003560e01c8063418f065611610074578063b249bb301161004e578063b249bb3014610296578063c4f0ee36146102b6578063f7cd1d9b146102d657600080fd5b8063418f0656146101b357806368b5a9a8146102625780639128c22c1461027557600080fd5b80630be48095116100a55780630be48095146101185780632b20e3971461013a57806340b807461461019357600080fd5b806301ffc9a7146100c157806306fdde03146100f6575b600080fd5b3480156100cd57600080fd5b506100e16100dc366004611cb0565b61030a565b60405190151581526020015b60405180910390f35b34801561010257600080fd5b5061010b6103a3565b6040516100ed9190611d1e565b34801561012457600080fd5b50610138610133366004611d94565b610431565b005b34801561014657600080fd5b5061016e7f000000000000000000000000000000000000000000000000000000000000000081565b60405173ffffffffffffffffffffffffffffffffffffffff90911681526020016100ed565b34801561019f57600080fd5b506101386101ae366004611dc9565b6105d2565b3480156101bf57600080fd5b506102296101ce366004611dc9565b600360209081526000928352604080842090915290825290205473ffffffffffffffffffffffffffffffffffffffff8116907401000000000000000000000000000000000000000090046bffffffffffffffffffffffff1682565b6040805173ffffffffffffffffffffffffffffffffffffffff90931683526bffffffffffffffffffffffff9091166020830152016100ed565b610138610270366004611dc9565b61089c565b610288610283366004611df5565b610bdf565b6040519081526020016100ed565b3480156102a257600080fd5b506101386102b1366004611e3f565b610e84565b3480156102c257600080fd5b506101386102d1366004611d94565b611046565b3480156102e257600080fd5b5061016e7f000000000000000000000000000000000000000000000000000000000000000081565b60007fffffffff0000000000000000000000000000000000000000000000000000000082167fe719c04d00000000000000000000000000000000000000000000000000000000148061039d57507f01ffc9a7000000000000000000000000000000000000000000000000000000007fffffffff000000000000000000000000000000000000000000000000000000008316145b92915050565b600280546103b090611e5c565b80601f01602080910402602001604051908101604052809291908181526020018280546103dc90611e5c565b80156104295780601f106103fe57610100808354040283529160200191610429565b820191906000526020600020905b81548152906001019060200180831161040c57829003601f168201915b505050505081565b6000546001146104a2576040517f08c379a000000000000000000000000000000000000000000000000000000000815260206004820152600a60248201527f5245454e5452414e43590000000000000000000000000000000000000000000060448201526064015b60405180910390fd5b6002600090815573ffffffffffffffffffffffffffffffffffffffff848116825260036020908152604080842086855290915290912080549091163314610545576040517f08c379a000000000000000000000000000000000000000000000000000000000815260206004820152600b60248201527f4f4e4c595f53454c4c45520000000000000000000000000000000000000000006044820152606401610499565b805473ffffffffffffffffffffffffffffffffffffffff908116740100000000000000000000000000000000000000006bffffffffffffffffffffffff851602178255604080513381526020810185905285928716917f18c0eece1e729d9b8010f8a94ed680280eb3ccfedaedef0218b6c6a64a2d314391015b60405180910390a3505060016000555050565b60005460011461063e576040517f08c379a000000000000000000000000000000000000000000000000000000000815260206004820152600a60248201527f5245454e5452414e4359000000000000000000000000000000000000000000006044820152606401610499565b6002600090815573ffffffffffffffffffffffffffffffffffffffff8381168252600360209081526040808420858552825292839020835180850190945254918216808452740100000000000000000000000000000000000000009092046bffffffffffffffffffffffff16908301523381148061077557506040517f6352211e0000000000000000000000000000000000000000000000000000000081526004810184905273ffffffffffffffffffffffffffffffffffffffff851690636352211e90602401602060405180830381865afa158015610722573d6000803e3d6000fd5b505050506040513d601f19601f820116820180604052508101906107469190611eb0565b73ffffffffffffffffffffffffffffffffffffffff163373ffffffffffffffffffffffffffffffffffffffff16145b6107db576040517f08c379a000000000000000000000000000000000000000000000000000000000815260206004820152601a60248201527f4f4e4c595f53454c4c45525f4f525f544f4b454e5f4f574e45520000000000006044820152606401610499565b828473ffffffffffffffffffffffffffffffffffffffff167fbe338a95c86a3b9c15c04bcc9498991ef98dc6013ff35a86006784873bf0f9b483856020015160405161085792919073ffffffffffffffffffffffffffffffffffffffff9290921682526bffffffffffffffffffffffff16602082015260400190565b60405180910390a3505073ffffffffffffffffffffffffffffffffffffffff909116600090815260036020908152604080832093835292905290812081905560019055565b600054600114610908576040517f08c379a000000000000000000000000000000000000000000000000000000000815260206004820152600a60248201527f5245454e5452414e4359000000000000000000000000000000000000000000006044820152606401610499565b6002600090815573ffffffffffffffffffffffffffffffffffffffff8381168252600360209081526040808420858552825292839020835180850190945254918216808452740100000000000000000000000000000000000000009092046bffffffffffffffffffffffff1690830152806109df576040517f08c379a000000000000000000000000000000000000000000000000000000000815260206004820152600c60248201527f494e4143544956455f41534b00000000000000000000000000000000000000006044820152606401610499565b60208201516bffffffffffffffffffffffff16348114610a5b576040517f08c379a000000000000000000000000000000000000000000000000000000000815260206004820152601060248201527f4d5553545f4d415443485f5052494345000000000000000000000000000000006044820152606401610499565b6000610a6e8686846000620493e06112f9565b509050610a7c8160006113ff565b9050610a8d8382600061c35061159d565b6040517f15dacbea00000000000000000000000000000000000000000000000000000000815273ffffffffffffffffffffffffffffffffffffffff87811660048301528481166024830152336044830152606482018790527f000000000000000000000000000000000000000000000000000000000000000016906315dacbea90608401600060405180830381600087803b158015610b2b57600080fd5b505af1158015610b3f573d6000803e3d6000fd5b50506040805133815273ffffffffffffffffffffffffffffffffffffffff878116602083015291810186905288935090891691507fed509339c949cdfdb11c117315bb3f74aa98886204732c065edd38979d7ccf539060600160405180910390a350505073ffffffffffffffffffffffffffffffffffffffff90921660009081526003602090815260408083209383529290529081208190556001905550565b6000333014610c70576040517f08c379a000000000000000000000000000000000000000000000000000000000815260206004820152602d60248201527f5f68616e646c65526f79616c7479456e67696e655061796f7574206f6e6c792060448201527f73656c662063616c6c61626c65000000000000000000000000000000000000006064820152608401610499565b6001546040517ff533b80200000000000000000000000000000000000000000000000000000000815273ffffffffffffffffffffffffffffffffffffffff87811660048301526024820187905260448201869052600092839291169063f533b802906064016000604051808303816000875af1158015610cf4573d6000803e3d6000fd5b505050506040513d6000823e601f3d9081017fffffffffffffffffffffffffffffffffffffffffffffffffffffffffffffffe0168201604052610d3a9190810190611fda565b8151919350915080610d5157859350505050610e7c565b85600080805b84811015610e7257868181518110610d7157610d7161209f565b60200260200101519250858181518110610d8d57610d8d61209f565b6020026020010151915081841015610e01576040517f08c379a000000000000000000000000000000000000000000000000000000000815260206004820152600960248201527f696e736f6c76656e7400000000000000000000000000000000000000000000006044820152606401610499565b610e0f83838b61c35061159d565b6040805173ffffffffffffffffffffffffffffffffffffffff8581168252602082018590528d92908f16917f866e6ef8682ddf5f1025e64dfdb45527077f7be70fa9ef680b7ffd8cf4ab9c50910160405180910390a39281900392600101610d57565b5091955050505050505b949350505050565b3373ffffffffffffffffffffffffffffffffffffffff7f00000000000000000000000000000000000000000000000000000000000000001614610f49576040517f08c379a000000000000000000000000000000000000000000000000000000000815260206004820152602660248201527f736574526f79616c7479456e67696e6541646472657373206f6e6c792072656760448201527f69737472617200000000000000000000000000000000000000000000000000006064820152608401610499565b610f73817fcb23f816000000000000000000000000000000000000000000000000000000006117ed565b610fff576040517f08c379a000000000000000000000000000000000000000000000000000000000815260206004820152603d60248201527f736574526f79616c7479456e67696e6541646472657373206d757374206d617460448201527f63682049526f79616c7479456e67696e65563120696e746572666163650000006064820152608401610499565b600180547fffffffffffffffffffffffff00000000000000000000000000000000000000001673ffffffffffffffffffffffffffffffffffffffff92909216919091179055565b6000546001146110b2576040517f08c379a000000000000000000000000000000000000000000000000000000000815260206004820152600a60248201527f5245454e5452414e4359000000000000000000000000000000000000000000006044820152606401610499565b600260009081556040517f6352211e0000000000000000000000000000000000000000000000000000000081526004810184905273ffffffffffffffffffffffffffffffffffffffff851690636352211e90602401602060405180830381865afa158015611124573d6000803e3d6000fd5b505050506040513d601f19601f820116820180604052508101906111489190611eb0565b90503373ffffffffffffffffffffffffffffffffffffffff821614806111ff57506040517fe985e9c500000000000000000000000000000000000000000000000000000000815273ffffffffffffffffffffffffffffffffffffffff828116600483015233602483015285169063e985e9c590604401602060405180830381865afa1580156111db573d6000803e3d6000fd5b505050506040513d601f19601f820116820180604052508101906111ff91906120ce565b611265576040517f08c379a000000000000000000000000000000000000000000000000000000000815260206004820152601c60248201527f4f4e4c595f544f4b454e5f4f574e45525f4f525f4f50455241544f52000000006044820152606401610499565b73ffffffffffffffffffffffffffffffffffffffff8481166000818152600360209081526040808320888452825291829020938516740100000000000000000000000000000000000000006bffffffffffffffffffffffff88160281179094558151938452830185905285927fb427f2572be967193f84fe4fa05aa3137657735475127a9dffaf978c15f682be91016105bf565b6000808083158061130957505a84115b6113135783611315565b5a5b6040517f9128c22c00000000000000000000000000000000000000000000000000000000815273ffffffffffffffffffffffffffffffffffffffff808b166004830152602482018a905260448201899052871660648201529091503090639128c22c90839060840160206040518083038160008887f1935050505080156113d7575060408051601f3d9081017fffffffffffffffffffffffffffffffffffffffffffffffffffffffffffffffe01682019092526113d4918101906120f0565b60015b6113e85785600092509250506113f5565b9250600191506113f59050565b9550959350505050565b6040517f61b485f600000000000000000000000000000000000000000000000000000000815230600482015260248101839052600090819073ffffffffffffffffffffffffffffffffffffffff7f000000000000000000000000000000000000000000000000000000000000000016906361b485f690604401602060405180830381865afa158015611495573d6000803e3d6000fd5b505050506040513d601f19601f820116820180604052508101906114b991906120f0565b9050806114c9578391505061039d565b6040517f86ab6fb90000000000000000000000000000000000000000000000000000000081523060048201526000907f000000000000000000000000000000000000000000000000000000000000000073ffffffffffffffffffffffffffffffffffffffff16906386ab6fb9906024016040805180830381865afa158015611555573d6000803e3d6000fd5b505050506040513d601f19601f820116820180604052508101906115799190612109565b91505061158a81838661c35061159d565b611594828661214a565b95945050505050565b8215806115be575073ffffffffffffffffffffffffffffffffffffffff8416155b156115c8576117e7565b73ffffffffffffffffffffffffffffffffffffffff82166117c65782471015611673576040517f08c379a000000000000000000000000000000000000000000000000000000000815260206004820152602160248201527f5f68616e646c654f7574676f696e675472616e7366657220696e736f6c76656e60448201527f74000000000000000000000000000000000000000000000000000000000000006064820152608401610499565b600081158061168157505a82115b61168b578161168d565b5a5b905060008573ffffffffffffffffffffffffffffffffffffffff16858390604051600060405180830381858888f193505050503d80600081146116ec576040519150601f19603f3d011682016040523d82523d6000602084013e6116f1565b606091505b50509050806117bf577f000000000000000000000000000000000000000000000000000000000000000073ffffffffffffffffffffffffffffffffffffffff1663d0e30db0866040518263ffffffff1660e01b81526004016000604051808303818588803b15801561176257600080fd5b505af1158015611776573d6000803e3d6000fd5b506117bf93505073ffffffffffffffffffffffffffffffffffffffff7f000000000000000000000000000000000000000000000000000000000000000016915088905087611810565b50506117e7565b6117e773ffffffffffffffffffffffffffffffffffffffff83168585611810565b50505050565b60006117f8836118a2565b801561180957506118098383611906565b9392505050565b6040805173ffffffffffffffffffffffffffffffffffffffff8416602482015260448082018490528251808303909101815260649091019091526020810180517bffffffffffffffffffffffffffffffffffffffffffffffffffffffff167fa9059cbb0000000000000000000000000000000000000000000000000000000017905261189d908490611a42565b505050565b60006118ce827f01ffc9a700000000000000000000000000000000000000000000000000000000611906565b801561039d57506118ff827fffffffff00000000000000000000000000000000000000000000000000000000611906565b1592915050565b604080517fffffffff00000000000000000000000000000000000000000000000000000000831660248083019190915282518083039091018152604490910182526020810180517bffffffffffffffffffffffffffffffffffffffffffffffffffffffff167f01ffc9a7000000000000000000000000000000000000000000000000000000001790529051600091908290819073ffffffffffffffffffffffffffffffffffffffff871690617530906119c0908690612188565b6000604051808303818686fa925050503d80600081146119fc576040519150601f19603f3d011682016040523d82523d6000602084013e611a01565b606091505b5091509150602081511015611a1c576000935050505061039d565b818015611a38575080806020019051810190611a3891906120ce565b9695505050505050565b6000611aa4826040518060400160405280602081526020017f5361666545524332303a206c6f772d6c6576656c2063616c6c206661696c65648152508573ffffffffffffffffffffffffffffffffffffffff16611b4e9092919063ffffffff16565b80519091501561189d5780806020019051810190611ac291906120ce565b61189d576040517f08c379a000000000000000000000000000000000000000000000000000000000815260206004820152602a60248201527f5361666545524332303a204552433230206f7065726174696f6e20646964206e60448201527f6f742073756363656564000000000000000000000000000000000000000000006064820152608401610499565b6060610e7c84846000858573ffffffffffffffffffffffffffffffffffffffff85163b611bd7576040517f08c379a000000000000000000000000000000000000000000000000000000000815260206004820152601d60248201527f416464726573733a2063616c6c20746f206e6f6e2d636f6e74726163740000006044820152606401610499565b6000808673ffffffffffffffffffffffffffffffffffffffff168587604051611c009190612188565b60006040518083038185875af1925050503d8060008114611c3d576040519150601f19603f3d011682016040523d82523d6000602084013e611c42565b606091505b5091509150611c52828286611c5d565b979650505050505050565b60608315611c6c575081611809565b825115611c7c5782518084602001fd5b816040517f08c379a00000000000000000000000000000000000000000000000000000000081526004016104999190611d1e565b600060208284031215611cc257600080fd5b81357fffffffff000000000000000000000000000000000000000000000000000000008116811461180957600080fd5b60005b83811015611d0d578181015183820152602001611cf5565b838111156117e75750506000910152565b6020815260008251806020840152611d3d816040850160208701611cf2565b601f017fffffffffffffffffffffffffffffffffffffffffffffffffffffffffffffffe0169190910160400192915050565b73ffffffffffffffffffffffffffffffffffffffff81168114611d9157600080fd5b50565b600080600060608486031215611da957600080fd5b8335611db481611d6f565b95602085013595506040909401359392505050565b60008060408385031215611ddc57600080fd5b8235611de781611d6f565b946020939093013593505050565b60008060008060808587031215611e0b57600080fd5b8435611e1681611d6f565b935060208501359250604085013591506060850135611e3481611d6f565b939692955090935050565b600060208284031215611e5157600080fd5b813561180981611d6f565b600181811c90821680611e7057607f821691505b60208210811415611eaa577f4e487b7100000000000000000000000000000000000000000000000000000000600052602260045260246000fd5b50919050565b600060208284031215611ec257600080fd5b815161180981611d6f565b7f4e487b7100000000000000000000000000000000000000000000000000000000600052604160045260246000fd5b604051601f82017fffffffffffffffffffffffffffffffffffffffffffffffffffffffffffffffe016810167ffffffffffffffff81118282101715611f4357611f43611ecd565b604052919050565b600067ffffffffffffffff821115611f6557611f65611ecd565b5060051b60200190565b600082601f830112611f8057600080fd5b81516020611f95611f9083611f4b565b611efc565b82815260059290921b84018101918181019086841115611fb457600080fd5b8286015b84811015611fcf5780518352918301918301611fb8565b509695505050505050565b60008060408385031215611fed57600080fd5b825167ffffffffffffffff8082111561200557600080fd5b818501915085601f83011261201957600080fd5b81516020612029611f9083611f4b565b82815260059290921b8401810191818101908984111561204857600080fd5b948201945b8386101561206f57855161206081611d6f565b8252948201949082019061204d565b9188015191965090935050508082111561208857600080fd5b5061209585828601611f6f565b9150509250929050565b7f4e487b7100000000000000000000000000000000000000000000000000000000600052603260045260246000fd5b6000602082840312156120e057600080fd5b8151801515811461180957600080fd5b60006020828403121561210257600080fd5b5051919050565b6000806040838503121561211c57600080fd5b825161ffff8116811461212e57600080fd5b602084015190925061213f81611d6f565b809150509250929050565b600082821015612183577f4e487b7100000000000000000000000000000000000000000000000000000000600052601160045260246000fd5b500390565b6000825161219a818460208701611cf2565b919091019291505056fea264697066735822122002af1b21ee9afd6e6e4576bb2b85f129c35df15c6b29dc606eb6b071ba53d0e964736f6c634300080a0033",
    "linkReferences": {}
  },
  "methodIdentifiers": {
    "_handleRoyaltyEnginePayout(address,uint256,uint256,address)": "9128c22c",
    "askForNFT(address,uint256)": "418f0656",
    "cancelAsk(address,uint256)": "40b80746",
    "createAsk(address,uint256,uint256)": "c4f0ee36",
    "erc721TransferHelper()": "f7cd1d9b",
    "fillAsk(address,uint256)": "68b5a9a8",
    "name()": "06fdde03",
    "registrar()": "2b20e397",
    "setAskPrice(address,uint256,uint256)": "0be48095",
    "setRoyaltyEngineAddress(address)": "b249bb30",
    "supportsInterface(bytes4)": "01ffc9a7"
  },
  "id": 12
}