{
  "abi": [
    {
      "inputs": [],
      "name": "ok",
      "outputs": [
        {
          "internalType": "uint256",
          "name": "",
          "type": "uint256"
        }
      ],
      "stateMutability": "pure",
      "type": "function"
    }
  ],
  "bytecode": {
    "object": "0x6080604052348015600f57600080fd5b50607780601d6000396000f3fe6080604052348015600f57600080fd5b506004361060285760003560e01c8063d909b40314602d575b600080fd5b600160405190815260200160405180910390f3fea2646970667358221220c9d0bc988a30fcf1383adfbf0bad5c9b8440ece1565759cdca330db3ff9e354864736f6c634300080a0033",
    "linkReferences": {}
  },
  "methodIdentifiers": {
    "ok()": "d909b403"
  },
  "id": 67
}