{
  "abi": [
    {
      "inputs": [
        {
          "internalType": "address",
          "name": "_erc721TransferHelper",
          "type": "address"
        },
        {
          "internalType": "address",
          "name": "_royaltyEngine",
          "type": "address"
        },
        {
          "internalType": "address",
          "name": "_protocolFeeSettings",
          "type": "address"
        },
        {
          "internalType": "address",
          "name": "_weth",
          "type": "address"
        }
      ],
      "stateMutability": "nonpayable",
      "type": "constructor"
    },
    {
      "anonymous": false,
      "inputs": [
        {
          "indexed": true,
          "internalType": "address",
          "name": "tokenContract",
          "type": "address"
        },
        {
          "indexed": true,
          "internalType": "uint256",
          "name": "tokenId",
          "type": "uint256"
        },
        {
          "indexed": false,
          "internalType": "bool",
          "name": "firstBid",
          "type": "bool"
        },
        {
          "indexed": false,
          "internalType": "bool",
          "name": "extended",
          "type": "bool"
        },
        {
          "components": [
            {
              "internalType": "address",
              "name": "seller",
              "type": "address"
            },
            {
              "internalType": "uint96",
              "name": "reservePrice",
              "type": "uint96"
            },
            {
              "internalType": "address",
              "name": "sellerFundsRecipient",
              "type": "address"
            },
            {
              "internalType": "uint96",
              "name": "highestBid",
              "type": "uint96"
            },
            {
              "internalType": "address",
              "name": "highestBidder",
              "type": "address"
            },
            {
              "internalType": "uint48",
              "name": "duration",
              "type": "uint48"
            },
            {
              "internalType": "uint48",
              "name": "startTime",
              "type": "uint48"
            },
            {
              "internalType": "address",
              "name": "finder",
              "type": "address"
            },
            {
              "internalType": "uint80",
              "name": "firstBidTime",
              "type": "uint80"
            },
            {
              "internalType": "uint16",
              "name": "findersFeeBps",
              "type": "uint16"
            }
          ],
          "indexed": false,
          "internalType": "struct ReserveAuctionFindersEth.Auction",
          "name": "auction",
          "type": "tuple"
        }
      ],
      "name": "AuctionBid",
      "type": "event"
    },
    {
      "anonymous": false,
      "inputs": [
        {
          "indexed": true,
          "internalType": "address",
          "name": "tokenContract",
          "type": "address"
        },
        {
          "indexed": true,
          "internalType": "uint256",
          "name": "tokenId",
          "type": "uint256"
        },
        {
          "components": [
            {
              "internalType": "address",
              "name": "seller",
              "type": "address"
            },
            {
              "internalType": "uint96",
              "name": "reservePrice",
              "type": "uint96"
            },
            {
              "internalType": "address",
              "name": "sellerFundsRecipient",
              "type": "address"
            },
            {
              "internalType": "uint96",
              "name": "highestBid",
              "type": "uint96"
            },
            {
              "internalType": "address",
              "name": "highestBidder",
              "type": "address"
            },
            {
              "internalType": "uint48",
              "name": "duration",
              "type": "uint48"
            },
            {
              "internalType": "uint48",
              "name": "startTime",
              "type": "uint48"
            },
            {
              "internalType": "address",
              "name": "finder",
              "type": "address"
            },
            {
              "internalType": "uint80",
              "name": "firstBidTime",
              "type": "uint80"
            },
            {
              "internalType": "uint16",
              "name": "findersFeeBps",
              "type": "uint16"
            }
          ],
          "indexed": false,
          "internalType": "struct ReserveAuctionFindersEth.Auction",
          "name": "auction",
          "type": "tuple"
        }
      ],
      "name": "AuctionCanceled",
      "type": "event"
    },
    {
      "anonymous": false,
      "inputs": [
        {
          "indexed": true,
          "internalType": "address",
          "name": "tokenContract",
          "type": "address"
        },
        {
          "indexed": true,
          "internalType": "uint256",
          "name": "tokenId",
          "type": "uint256"
        },
        {
          "components": [
            {
              "internalType": "address",
              "name": "seller",
              "type": "address"
            },
            {
              "internalType": "uint96",
              "name": "reservePrice",
              "type": "uint96"
            },
            {
              "internalType": "address",
              "name": "sellerFundsRecipient",
              "type": "address"
            },
            {
              "internalType": "uint96",
              "name": "highestBid",
              "type": "uint96"
            },
            {
              "internalType": "address",
              "name": "highestBidder",
              "type": "address"
            },
            {
              "internalType": "uint48",
              "name": "duration",
              "type": "uint48"
            },
            {
              "internalType": "uint48",
              "name": "startTime",
              "type": "uint48"
            },
            {
              "internalType": "address",
              "name": "finder",
              "type": "address"
            },
            {
              "internalType": "uint80",
              "name": "firstBidTime",
              "type": "uint80"
            },
            {
              "internalType": "uint16",
              "name": "findersFeeBps",
              "type": "uint16"
            }
          ],
          "indexed": false,
          "internalType": "struct ReserveAuctionFindersEth.Auction",
          "name": "auction",
          "type": "tuple"
        }
      ],
      "name": "AuctionCreated",
      "type": "event"
    },
    {
      "anonymous": false,
      "inputs": [
        {
          "indexed": true,
          "internalType": "address",
          "name": "tokenContract",
          "type": "address"
        },
        {
          "indexed": true,
          "internalType": "uint256",
          "name": "tokenId",
          "type": "uint256"
        },
        {
          "components": [
            {
              "internalType": "address",
              "name": "seller",
              "type": "address"
            },
            {
              "internalType": "uint96",
              "name": "reservePrice",
              "type": "uint96"
            },
            {
              "internalType": "address",
              "name": "sellerFundsRecipient",
              "type": "address"
            },
            {
              "internalType": "uint96",
              "name": "highestBid",
              "type": "uint96"
            },
            {
              "internalType": "address",
              "name": "highestBidder",
              "type": "address"
            },
            {
              "internalType": "uint48",
              "name": "duration",
              "type": "uint48"
            },
            {
              "internalType": "uint48",
              "name": "startTime",
              "type": "uint48"
            },
            {
              "internalType": "address",
              "name": "finder",
              "type": "address"
            },
            {
              "internalType": "uint80",
              "name": "firstBidTime",
              "type": "uint80"
            },
            {
              "internalType": "uint16",
              "name": "findersFeeBps",
              "type": "uint16"
            }
          ],
          "indexed": false,
          "internalType": "struct ReserveAuctionFindersEth.Auction",
          "name": "auction",
          "type": "tuple"
        }
      ],
      "name": "AuctionEnded",
      "type": "event"
    },
    {
      "anonymous": false,
      "inputs": [
        {
          "indexed": true,
          "internalType": "address",
          "name": "tokenContract",
          "type": "address"
        },
        {
          "indexed": true,
          "internalType": "uint256",
          "name": "tokenId",
          "type": "uint256"
        },
        {
          "components": [
            {
              "internalType": "address",
              "name": "seller",
              "type": "address"
            },
            {
              "internalType": "uint96",
              "name": "reservePrice",
              "type": "uint96"
            },
            {
              "internalType": "address",
              "name": "sellerFundsRecipient",
              "type": "address"
            },
            {
              "internalType": "uint96",
              "name": "highestBid",
              "type": "uint96"
            },
            {
              "internalType": "address",
              "name": "highestBidder",
              "type": "address"
            },
            {
              "internalType": "uint48",
              "name": "duration",
              "type": "uint48"
            },
            {
              "internalType": "uint48",
              "name": "startTime",
              "type": "uint48"
            },
            {
              "internalType": "address",
              "name": "finder",
              "type": "address"
            },
            {
              "internalType": "uint80",
              "name": "firstBidTime",
              "type": "uint80"
            },
            {
              "internalType": "uint16",
              "name": "findersFeeBps",
              "type": "uint16"
            }
          ],
          "indexed": false,
          "internalType": "struct ReserveAuctionFindersEth.Auction",
          "name": "auction",
          "type": "tuple"
        }
      ],
      "name": "AuctionReservePriceUpdated",
      "type": "event"
    },
    {
      "anonymous": false,
      "inputs": [
        {
          "indexed": true,
          "internalType": "address",
          "name": "tokenContract",
          "type": "address"
        },
        {
          "indexed": true,
          "internalType": "uint256",
          "name": "tokenId",
          "type": "uint256"
        },
        {
          "indexed": false,
          "internalType": "address",
          "name": "recipient",
          "type": "address"
        },
        {
          "indexed": false,
          "internalType": "uint256",
          "name": "amount",
          "type": "uint256"
        }
      ],
      "name": "RoyaltyPayout",
      "type": "event"
    },
    {
      "inputs": [
        {
          "internalType": "address",
          "name": "_tokenContract",
          "type": "address"
        },
        {
          "internalType": "uint256",
          "name": "_tokenId",
          "type": "uint256"
        },
        {
          "internalType": "uint256",
          "name": "_amount",
          "type": "uint256"
        },
        {
          "internalType": "address",
          "name": "_payoutCurrency",
          "type": "address"
        }
      ],
      "name": "_handleRoyaltyEnginePayout",
      "outputs": [
        {
          "internalType": "uint256",
          "name": "",
          "type": "uint256"
        }
      ],
      "stateMutability": "payable",
      "type": "function"
    },
    {
      "inputs": [
        {
          "internalType": "address",
          "name": "",
          "type": "address"
        },
        {
          "internalType": "uint256",
          "name": "",
          "type": "uint256"
        }
      ],
      "name": "auctionForNFT",
      "outputs": [
        {
          "internalType": "address",
          "name": "seller",
          "type": "address"
        },
        {
          "internalType": "uint96",
          "name": "reservePrice",
          "type": "uint96"
        },
        {
          "internalType": "address",
          "name": "sellerFundsRecipient",
          "type": "address"
        },
        {
          "internalType": "uint96",
          "name": "highestBid",
          "type": "uint96"
        },
        {
          "internalType": "address",
          "name": "highestBidder",
          "type": "address"
        },
        {
          "internalType": "uint48",
          "name": "duration",
          "type": "uint48"
        },
        {
          "internalType": "uint48",
          "name": "startTime",
          "type": "uint48"
        },
        {
          "internalType": "address",
          "name": "finder",
          "type": "address"
        },
        {
          "internalType": "uint80",
          "name": "firstBidTime",
          "type": "uint80"
        },
        {
          "internalType": "uint16",
          "name": "findersFeeBps",
          "type": "uint16"
        }
      ],
      "stateMutability": "view",
      "type": "function"
    },
    {
      "inputs": [
        {
          "internalType": "address",
          "name": "_tokenContract",
          "type": "address"
        },
        {
          "internalType": "uint256",
          "name": "_tokenId",
          "type": "uint256"
        }
      ],
      "name": "cancelAuction",
      "outputs": [],
      "stateMutability": "nonpayable",
      "type": "function"
    },
    {
      "inputs": [
        {
          "internalType": "address",
          "name": "_tokenContract",
          "type": "address"
        },
        {
          "internalType": "uint256",
          "name": "_tokenId",
          "type": "uint256"
        },
        {
          "internalType": "uint256",
          "name": "_duration",
          "type": "uint256"
        },
        {
          "internalType": "uint256",
          "name": "_reservePrice",
          "type": "uint256"
        },
        {
          "internalType": "address",
          "name": "_sellerFundsRecipient",
          "type": "address"
        },
        {
          "internalType": "uint256",
          "name": "_startTime",
          "type": "uint256"
        },
        {
          "internalType": "uint256",
          "name": "_findersFeeBps",
          "type": "uint256"
        }
      ],
      "name": "createAuction",
      "outputs": [],
      "stateMutability": "nonpayable",
      "type": "function"
    },
    {
      "inputs": [
        {
          "internalType": "address",
          "name": "_tokenContract",
          "type": "address"
        },
        {
          "internalType": "uint256",
          "name": "_tokenId",
          "type": "uint256"
        },
        {
          "internalType": "address",
          "name": "_finder",
          "type": "address"
        }
      ],
      "name": "createBid",
      "outputs": [],
      "stateMutability": "payable",
      "type": "function"
    },
    {
      "inputs": [],
      "name": "erc721TransferHelper",
      "outputs": [
        {
          "internalType": "contract ERC721TransferHelper",
          "name": "",
          "type": "address"
        }
      ],
      "stateMutability": "view",
      "type": "function"
    },
    {
      "inputs": [],
      "name": "name",
      "outputs": [
        {
          "internalType": "string",
          "name": "",
          "type": "string"
        }
      ],
      "stateMutability": "view",
      "type": "function"
    },
    {
      "inputs": [],
      "name": "registrar",
      "outputs": [
        {
          "internalType": "address",
          "name": "",
          "type": "address"
        }
      ],
      "stateMutability": "view",
      "type": "function"
    },
    {
      "inputs": [
        {
          "internalType": "address",
          "name": "_tokenContract",
          "type": "address"
        },
        {
          "internalType": "uint256",
          "name": "_tokenId",
          "type": "uint256"
        },
        {
          "internalType": "uint256",
          "name": "_reservePrice",
          "type": "uint256"
        }
      ],
      "name": "setAuctionReservePrice",
      "outputs": [],
      "stateMutability": "nonpayable",
      "type": "function"
    },
    {
      "inputs": [
        {
          "internalType": "address",
          "name": "_royaltyEngine",
          "type": "address"
        }
      ],
      "name": "setRoyaltyEngineAddress",
      "outputs": [],
      "stateMutability": "nonpayable",
      "type": "function"
    },
    {
      "inputs": [
        {
          "internalType": "address",
          "name": "_tokenContract",
          "type": "address"
        },
        {
          "internalType": "uint256",
          "name": "_tokenId",
          "type": "uint256"
        }
      ],
      "name": "settleAuction",
      "outputs": [],
      "stateMutability": "nonpayable",
      "type": "function"
    },
    {
      "inputs": [
        {
          "internalType": "bytes4",
          "name": "_interfaceId",
          "type": "bytes4"
        }
      ],
      "name": "supportsInterface",
      "outputs": [
        {
          "internalType": "bool",
          "name": "",
          "type": "bool"
        }
      ],
      "stateMutability": "pure",
      "type": "function"
    }
  ],
  "bytecode": {
    "object": "0x61010060405260016000553480156200001757600080fd5b5060405162003528380380620035288339810160408190526200003a916200025a565b6040518060400160405280601b81526020017f526573657276652041756374696f6e2046696e64657273204554480000000000815250838383876001600160a01b031663e3e606f06040518163ffffffff1660e01b8152600401602060405180830381865afa158015620000b2573d6000803e3d6000fd5b505050506040513d601f19601f82011682018060405250810190620000d89190620002c2565b6001600160a01b0316632b20e3976040518163ffffffff1660e01b8152600401602060405180830381865afa15801562000116573d6000803e3d6000fd5b505050506040513d601f19601f820116820180604052508101906200013c9190620002c2565b6001600160a01b03918216608052600180546001600160a01b0319169483169490941790935590811660c0521660a0528051620001819060029060208401906200019b565b5050506001600160a01b0390921660e05250620003269050565b828054620001a990620002e9565b90600052602060002090601f016020900481019282620001cd576000855562000218565b82601f10620001e857805160ff191683800117855562000218565b8280016001018555821562000218579182015b8281111562000218578251825591602001919060010190620001fb565b50620002269291506200022a565b5090565b5b808211156200022657600081556001016200022b565b6001600160a01b03811681146200025757600080fd5b50565b600080600080608085870312156200027157600080fd5b84516200027e8162000241565b6020860151909450620002918162000241565b6040860151909350620002a48162000241565b6060860151909250620002b78162000241565b939692955090935050565b600060208284031215620002d557600080fd5b8151620002e28162000241565b9392505050565b600181811c90821680620002fe57607f821691505b602082108114156200032057634e487b7160e01b600052602260045260246000fd5b50919050565b60805160a05160c05160e0516131ac6200037c600039600081816103f901526108690152600081816122bc01526123680152600081816101350152611b32015260008181612076015261210e01526131ac6000f3fe6080604052600436106100c75760003560e01c80639128c22c11610074578063b249bb301161004e578063b249bb30146103a7578063cbe98dba146103c7578063f7cd1d9b146103e757600080fd5b80639128c22c146101d1578063a90832a1146101f2578063b1393b471461038757600080fd5b806334f507b8116100a557806334f507b81461017c5780635138b08c14610191578063859b97fe146101b157600080fd5b806301ffc9a7146100cc57806306fdde03146101015780632b20e39714610123575b600080fd5b3480156100d857600080fd5b506100ec6100e73660046128ce565b61041b565b60405190151581526020015b60405180910390f35b34801561010d57600080fd5b506101166104b4565b6040516100f8919061293c565b34801561012f57600080fd5b506101577f000000000000000000000000000000000000000000000000000000000000000081565b60405173ffffffffffffffffffffffffffffffffffffffff90911681526020016100f8565b61018f61018a3660046129b2565b610542565b005b34801561019d57600080fd5b5061018f6101ac3660046129f4565b610b66565b3480156101bd57600080fd5b5061018f6101cc3660046129f4565b610fbd565b6101e46101df366004612a20565b611394565b6040519081526020016100f8565b3480156101fe57600080fd5b506102f761020d3660046129f4565b60036020818152600093845260408085209091529183529120805460018201546002830154929093015473ffffffffffffffffffffffffffffffffffffffff8083169474010000000000000000000000000000000000000000938490046bffffffffffffffffffffffff908116958383169592839004909116938382169383830465ffffffffffff908116947a01000000000000000000000000000000000000000000000000000090940416929082169190810469ffffffffffffffffffff16907e01000000000000000000000000000000000000000000000000000000000000900461ffff168a565b6040805173ffffffffffffffffffffffffffffffffffffffff9b8c1681526bffffffffffffffffffffffff9a8b166020820152988b1690890152979095166060870152928716608086015265ffffffffffff91821660a08601521660c08401529390931660e082015269ffffffffffffffffffff90921661010083015261ffff16610120820152610140016100f8565b34801561039357600080fd5b5061018f6103a2366004612a6a565b611639565b3480156103b357600080fd5b5061018f6103c2366004612ad2565b611b1a565b3480156103d357600080fd5b5061018f6103e2366004612aef565b611cdc565b3480156103f357600080fd5b506101577f000000000000000000000000000000000000000000000000000000000000000081565b60007fffffffff0000000000000000000000000000000000000000000000000000000082167f9a8696370000000000000000000000000000000000000000000000000000000014806104ae57507f01ffc9a7000000000000000000000000000000000000000000000000000000007fffffffff000000000000000000000000000000000000000000000000000000008316145b92915050565b600280546104c190612b24565b80601f01602080910402602001604051908101604052809291908181526020018280546104ed90612b24565b801561053a5780601f1061050f5761010080835404028352916020019161053a565b820191906000526020600020905b81548152906001019060200180831161051d57829003601f168201915b505050505081565b6000546001146105b3576040517f08c379a000000000000000000000000000000000000000000000000000000000815260206004820152600a60248201527f5245454e5452414e43590000000000000000000000000000000000000000000060448201526064015b60405180910390fd5b6002600090815573ffffffffffffffffffffffffffffffffffffffff8085168252600360209081526040808420868552909152909120805490911680610655576040517f08c379a000000000000000000000000000000000000000000000000000000000815260206004820152601660248201527f41554354494f4e5f444f45535f4e4f545f45584953540000000000000000000060448201526064016105aa565b60028201547a010000000000000000000000000000000000000000000000000000900465ffffffffffff164210156106e9576040517f08c379a000000000000000000000000000000000000000000000000000000000815260206004820152601360248201527f41554354494f4e5f4e4f545f535441525445440000000000000000000000000060448201526064016105aa565b6003820154600283015469ffffffffffffffffffff7401000000000000000000000000000000000000000092839004169165ffffffffffff9104166000826108cc5784547401000000000000000000000000000000000000000090046bffffffffffffffffffffffff163410156107bc576040517f08c379a000000000000000000000000000000000000000000000000000000000815260206004820152601560248201527f524553455256455f50524943455f4e4f545f4d4554000000000000000000000060448201526064016105aa565b506003840180547fffff00000000000000000000ffffffffffffffffffffffffffffffffffffffff16740100000000000000000000000000000000000000004269ffffffffffffffffffff16021790556040517f15dacbea00000000000000000000000000000000000000000000000000000000815273ffffffffffffffffffffffffffffffffffffffff88811660048301528481166024830152306044830152606482018890526001917f0000000000000000000000000000000000000000000000000000000000000000909116906315dacbea90608401600060405180830381600087803b1580156108af57600080fd5b505af11580156108c3573d6000803e3d6000fd5b50505050610a09565b6108d68284612ba7565b421061093e576040517f08c379a000000000000000000000000000000000000000000000000000000000815260206004820152600c60248201527f41554354494f4e5f4f564552000000000000000000000000000000000000000060448201526064016105aa565b60018501547401000000000000000000000000000000000000000090046bffffffffffffffffffffffff166064600a8202048101348111156109dc576040517f08c379a000000000000000000000000000000000000000000000000000000000815260206004820152601360248201527f4d494e494d554d5f4249445f4e4f545f4d45540000000000000000000000000060448201526064016105aa565b6002870154610a069073ffffffffffffffffffffffffffffffffffffffff1683600061c350611f17565b50505b60018501805473ffffffffffffffffffffffffffffffffffffffff90811674010000000000000000000000000000000000000000346bffffffffffffffffffffffff160217909155600286018054337fffffffffffffffffffffffff00000000000000000000000000000000000000009182161790915560038701805490911691881691909117905560004283850103610384811015610b025760028701805465ffffffffffff74010000000000000000000000000000000000000000808304821661038486900301909116027fffffffffffff000000000000ffffffffffffffffffffffffffffffffffffffff909116179055600191505b888a73ffffffffffffffffffffffffffffffffffffffff167fc82b4e00ded4316af839e6d3e19e6f3cacb51a22c743ef508470d89b7046e7da85858b604051610b4d93929190612bbf565b60405180910390a3505060016000555050505050505050565b600054600114610bd2576040517f08c379a000000000000000000000000000000000000000000000000000000000815260206004820152600a60248201527f5245454e5452414e43590000000000000000000000000000000000000000000060448201526064016105aa565b6002600081815573ffffffffffffffffffffffffffffffffffffffff84811682526003602081815260408085208786528252938490208451610140810186528154808616825274010000000000000000000000000000000000000000908190046bffffffffffffffffffffffff9081169483019490945260018301548087169783019790975295869004909216606083015294850154808416608083015284810465ffffffffffff90811660a08401527a0100000000000000000000000000000000000000000000000000009091041660c082015293015490811660e084015290810469ffffffffffffffffffff1661010083018190527e0100000000000000000000000000000000000000000000000000000000000090910461ffff1661012083015280610d5d576040517f08c379a000000000000000000000000000000000000000000000000000000000815260206004820152601360248201527f41554354494f4e5f4e4f545f535441525445440000000000000000000000000060448201526064016105aa565b60a0820151610d749065ffffffffffff1682612ba7565b421015610ddd576040517f08c379a000000000000000000000000000000000000000000000000000000000815260206004820152601060248201527f41554354494f4e5f4e4f545f4f5645520000000000000000000000000000000060448201526064016105aa565b6000610e02858585606001516bffffffffffffffffffffffff166000620493e0612167565b509050610e1081600061226d565b60e084015190915073ffffffffffffffffffffffffffffffffffffffff811615610e7757600061271085610120015161ffff1684610e4e9190612c65565b610e589190612ca2565b9050610e698282600061c350611f17565b610e738184612cdd565b9250505b610e8a846040015183600061c350611f17565b60808401516040517f23b872dd00000000000000000000000000000000000000000000000000000000815230600482015273ffffffffffffffffffffffffffffffffffffffff918216602482015260448101879052908716906323b872dd90606401600060405180830381600087803b158015610f0657600080fd5b505af1158015610f1a573d6000803e3d6000fd5b50505050848673ffffffffffffffffffffffffffffffffffffffff167f63f2e8137a051fe1c1458eb3c749d1e217f48dee1c1a37eba679273cc635ca4286604051610f659190612cf4565b60405180910390a350505073ffffffffffffffffffffffffffffffffffffffff909216600090815260036020818152604080842094845293905291812081815560018082018390556002820183905592018190555550565b600054600114611029576040517f08c379a000000000000000000000000000000000000000000000000000000000815260206004820152600a60248201527f5245454e5452414e43590000000000000000000000000000000000000000000060448201526064016105aa565b6002600081815573ffffffffffffffffffffffffffffffffffffffff84811682526003602081815260408085208786528252938490208451610140810186528154808616825274010000000000000000000000000000000000000000908190046bffffffffffffffffffffffff9081169483019490945260018301548087169783019790975295869004909216606083015294850154808416608083015284810465ffffffffffff90811660a08401527a0100000000000000000000000000000000000000000000000000009091041660c082015293015490811660e084015290810469ffffffffffffffffffff1661010083018190527e0100000000000000000000000000000000000000000000000000000000000090910461ffff16610120830152156111b4576040517f08c379a000000000000000000000000000000000000000000000000000000000815260206004820152600f60248201527f41554354494f4e5f53544152544544000000000000000000000000000000000060448201526064016105aa565b805173ffffffffffffffffffffffffffffffffffffffff1633148061129257506040517f6352211e0000000000000000000000000000000000000000000000000000000081526004810183905273ffffffffffffffffffffffffffffffffffffffff841690636352211e90602401602060405180830381865afa15801561123f573d6000803e3d6000fd5b505050506040513d601f19601f820116820180604052508101906112639190612e2c565b73ffffffffffffffffffffffffffffffffffffffff163373ffffffffffffffffffffffffffffffffffffffff16145b6112f8576040517f08c379a000000000000000000000000000000000000000000000000000000000815260206004820152601a60248201527f4f4e4c595f53454c4c45525f4f525f544f4b454e5f4f574e455200000000000060448201526064016105aa565b818373ffffffffffffffffffffffffffffffffffffffff167f3cd98da27031b43bc858c944e715af0224d928b768ac872218c3cbc0246199c68360405161133f9190612cf4565b60405180910390a35073ffffffffffffffffffffffffffffffffffffffff9091166000908152600360208181526040808420948452939052918120818155600180820183905560028201839055920181905555565b6000333014611425576040517f08c379a000000000000000000000000000000000000000000000000000000000815260206004820152602d60248201527f5f68616e646c65526f79616c7479456e67696e655061796f7574206f6e6c792060448201527f73656c662063616c6c61626c650000000000000000000000000000000000000060648201526084016105aa565b6001546040517ff533b80200000000000000000000000000000000000000000000000000000000815273ffffffffffffffffffffffffffffffffffffffff87811660048301526024820187905260448201869052600092839291169063f533b802906064016000604051808303816000875af11580156114a9573d6000803e3d6000fd5b505050506040513d6000823e601f3d9081017fffffffffffffffffffffffffffffffffffffffffffffffffffffffffffffffe01682016040526114ef9190810190612f56565b815191935091508061150657859350505050611631565b85600080805b84811015611627578681815181106115265761152661301b565b602002602001015192508581815181106115425761154261301b565b60200260200101519150818410156115b6576040517f08c379a000000000000000000000000000000000000000000000000000000000815260206004820152600960248201527f696e736f6c76656e74000000000000000000000000000000000000000000000060448201526064016105aa565b6115c483838b61c350611f17565b6040805173ffffffffffffffffffffffffffffffffffffffff8581168252602082018590528d92908f16917f866e6ef8682ddf5f1025e64dfdb45527077f7be70fa9ef680b7ffd8cf4ab9c50910160405180910390a3928190039260010161150c565b5091955050505050505b949350505050565b6000546001146116a5576040517f08c379a000000000000000000000000000000000000000000000000000000000815260206004820152600a60248201527f5245454e5452414e43590000000000000000000000000000000000000000000060448201526064016105aa565b600260009081556040517f6352211e0000000000000000000000000000000000000000000000000000000081526004810188905273ffffffffffffffffffffffffffffffffffffffff891690636352211e90602401602060405180830381865afa158015611717573d6000803e3d6000fd5b505050506040513d601f19601f8201168201806040525081019061173b9190612e2c565b90503373ffffffffffffffffffffffffffffffffffffffff821614806117f257506040517fe985e9c500000000000000000000000000000000000000000000000000000000815273ffffffffffffffffffffffffffffffffffffffff828116600483015233602483015289169063e985e9c590604401602060405180830381865afa1580156117ce573d6000803e3d6000fd5b505050506040513d601f19601f820116820180604052508101906117f2919061304a565b611858576040517f08c379a000000000000000000000000000000000000000000000000000000000815260206004820152601c60248201527f4f4e4c595f544f4b454e5f4f574e45525f4f525f4f50455241544f520000000060448201526064016105aa565b73ffffffffffffffffffffffffffffffffffffffff84166118d5576040517f08c379a000000000000000000000000000000000000000000000000000000000815260206004820152601760248201527f494e56414c49445f46554e44535f524543495049454e5400000000000000000060448201526064016105aa565b612710821115611941576040517f08c379a000000000000000000000000000000000000000000000000000000000815260206004820152601360248201527f494e56414c49445f46494e444552535f4645450000000000000000000000000060448201526064016105aa565b6000600360008a73ffffffffffffffffffffffffffffffffffffffff1673ffffffffffffffffffffffffffffffffffffffff16815260200190815260200160002060008981526020019081526020016000209050818160000160006101000a81548173ffffffffffffffffffffffffffffffffffffffff021916908373ffffffffffffffffffffffffffffffffffffffff160217905550858160000160146101000a8154816bffffffffffffffffffffffff02191690836bffffffffffffffffffffffff160217905550848160010160006101000a81548173ffffffffffffffffffffffffffffffffffffffff021916908373ffffffffffffffffffffffffffffffffffffffff160217905550868160020160146101000a81548165ffffffffffff021916908365ffffffffffff1602179055508381600201601a6101000a81548165ffffffffffff021916908365ffffffffffff1602179055508281600301601e6101000a81548161ffff021916908361ffff160217905550878973ffffffffffffffffffffffffffffffffffffffff167f8d594ef04d912286e9ef35545765b4942b8c5955a05d2acd1347f5fef31ba10183604051611b02919061306c565b60405180910390a35050600160005550505050505050565b3373ffffffffffffffffffffffffffffffffffffffff7f00000000000000000000000000000000000000000000000000000000000000001614611bdf576040517f08c379a000000000000000000000000000000000000000000000000000000000815260206004820152602660248201527f736574526f79616c7479456e67696e6541646472657373206f6e6c792072656760448201527f697374726172000000000000000000000000000000000000000000000000000060648201526084016105aa565b611c09817fcb23f8160000000000000000000000000000000000000000000000000000000061240b565b611c95576040517f08c379a000000000000000000000000000000000000000000000000000000000815260206004820152603d60248201527f736574526f79616c7479456e67696e6541646472657373206d757374206d617460448201527f63682049526f79616c7479456e67696e65563120696e7465726661636500000060648201526084016105aa565b600180547fffffffffffffffffffffffff00000000000000000000000000000000000000001673ffffffffffffffffffffffffffffffffffffffff92909216919091179055565b600054600114611d48576040517f08c379a000000000000000000000000000000000000000000000000000000000815260206004820152600a60248201527f5245454e5452414e43590000000000000000000000000000000000000000000060448201526064016105aa565b6002600090815573ffffffffffffffffffffffffffffffffffffffff841681526003602081815260408084208685529091529091209081015474010000000000000000000000000000000000000000900469ffffffffffffffffffff1615611e0c576040517f08c379a000000000000000000000000000000000000000000000000000000000815260206004820152600f60248201527f41554354494f4e5f53544152544544000000000000000000000000000000000060448201526064016105aa565b805473ffffffffffffffffffffffffffffffffffffffff163314611e8c576040517f08c379a000000000000000000000000000000000000000000000000000000000815260206004820152600b60248201527f4f4e4c595f53454c4c455200000000000000000000000000000000000000000060448201526064016105aa565b80546bffffffffffffffffffffffff8316740100000000000000000000000000000000000000000273ffffffffffffffffffffffffffffffffffffffff91821617825560405184918616907f70def19a51ef96d3b2bfacea88d97cc15f04747fd77a4453df24a182734492f890611f0490859061306c565b60405180910390a3505060016000555050565b821580611f38575073ffffffffffffffffffffffffffffffffffffffff8416155b15611f4257612161565b73ffffffffffffffffffffffffffffffffffffffff82166121405782471015611fed576040517f08c379a000000000000000000000000000000000000000000000000000000000815260206004820152602160248201527f5f68616e646c654f7574676f696e675472616e7366657220696e736f6c76656e60448201527f740000000000000000000000000000000000000000000000000000000000000060648201526084016105aa565b6000811580611ffb57505a82115b6120055781612007565b5a5b905060008573ffffffffffffffffffffffffffffffffffffffff16858390604051600060405180830381858888f193505050503d8060008114612066576040519150601f19603f3d011682016040523d82523d6000602084013e61206b565b606091505b5050905080612139577f000000000000000000000000000000000000000000000000000000000000000073ffffffffffffffffffffffffffffffffffffffff1663d0e30db0866040518263ffffffff1660e01b81526004016000604051808303818588803b1580156120dc57600080fd5b505af11580156120f0573d6000803e3d6000fd5b5061213993505073ffffffffffffffffffffffffffffffffffffffff7f00000000000000000000000000000000000000000000000000000000000000001691508890508761242e565b5050612161565b61216173ffffffffffffffffffffffffffffffffffffffff8316858561242e565b50505050565b6000808083158061217757505a84115b6121815783612183565b5a5b6040517f9128c22c00000000000000000000000000000000000000000000000000000000815273ffffffffffffffffffffffffffffffffffffffff808b166004830152602482018a905260448201899052871660648201529091503090639128c22c90839060840160206040518083038160008887f193505050508015612245575060408051601f3d9081017fffffffffffffffffffffffffffffffffffffffffffffffffffffffffffffffe016820190925261224291810190613100565b60015b612256578560009250925050612263565b9250600191506122639050565b9550959350505050565b6040517f61b485f600000000000000000000000000000000000000000000000000000000815230600482015260248101839052600090819073ffffffffffffffffffffffffffffffffffffffff7f000000000000000000000000000000000000000000000000000000000000000016906361b485f690604401602060405180830381865afa158015612303573d6000803e3d6000fd5b505050506040513d601f19601f820116820180604052508101906123279190613100565b90508061233757839150506104ae565b6040517f86ab6fb90000000000000000000000000000000000000000000000000000000081523060048201526000907f000000000000000000000000000000000000000000000000000000000000000073ffffffffffffffffffffffffffffffffffffffff16906386ab6fb9906024016040805180830381865afa1580156123c3573d6000803e3d6000fd5b505050506040513d601f19601f820116820180604052508101906123e79190613119565b9150506123f881838661c350611f17565b6124028286612cdd565b95945050505050565b6000612416836124c0565b801561242757506124278383612524565b9392505050565b6040805173ffffffffffffffffffffffffffffffffffffffff8416602482015260448082018490528251808303909101815260649091019091526020810180517bffffffffffffffffffffffffffffffffffffffffffffffffffffffff167fa9059cbb000000000000000000000000000000000000000000000000000000001790526124bb908490612660565b505050565b60006124ec827f01ffc9a700000000000000000000000000000000000000000000000000000000612524565b80156104ae575061251d827fffffffff00000000000000000000000000000000000000000000000000000000612524565b1592915050565b604080517fffffffff00000000000000000000000000000000000000000000000000000000831660248083019190915282518083039091018152604490910182526020810180517bffffffffffffffffffffffffffffffffffffffffffffffffffffffff167f01ffc9a7000000000000000000000000000000000000000000000000000000001790529051600091908290819073ffffffffffffffffffffffffffffffffffffffff871690617530906125de90869061315a565b6000604051808303818686fa925050503d806000811461261a576040519150601f19603f3d011682016040523d82523d6000602084013e61261f565b606091505b509150915060208151101561263a57600093505050506104ae565b818015612656575080806020019051810190612656919061304a565b9695505050505050565b60006126c2826040518060400160405280602081526020017f5361666545524332303a206c6f772d6c6576656c2063616c6c206661696c65648152508573ffffffffffffffffffffffffffffffffffffffff1661276c9092919063ffffffff16565b8051909150156124bb57808060200190518101906126e0919061304a565b6124bb576040517f08c379a000000000000000000000000000000000000000000000000000000000815260206004820152602a60248201527f5361666545524332303a204552433230206f7065726174696f6e20646964206e60448201527f6f7420737563636565640000000000000000000000000000000000000000000060648201526084016105aa565b606061163184846000858573ffffffffffffffffffffffffffffffffffffffff85163b6127f5576040517f08c379a000000000000000000000000000000000000000000000000000000000815260206004820152601d60248201527f416464726573733a2063616c6c20746f206e6f6e2d636f6e747261637400000060448201526064016105aa565b6000808673ffffffffffffffffffffffffffffffffffffffff16858760405161281e919061315a565b60006040518083038185875af1925050503d806000811461285b576040519150601f19603f3d011682016040523d82523d6000602084013e612860565b606091505b509150915061287082828661287b565b979650505050505050565b6060831561288a575081612427565b82511561289a5782518084602001fd5b816040517f08c379a00000000000000000000000000000000000000000000000000000000081526004016105aa919061293c565b6000602082840312156128e057600080fd5b81357fffffffff000000000000000000000000000000000000000000000000000000008116811461242757600080fd5b60005b8381101561292b578181015183820152602001612913565b838111156121615750506000910152565b602081526000825180602084015261295b816040850160208701612910565b601f017fffffffffffffffffffffffffffffffffffffffffffffffffffffffffffffffe0169190910160400192915050565b73ffffffffffffffffffffffffffffffffffffffff811681146129af57600080fd5b50565b6000806000606084860312156129c757600080fd5b83356129d28161298d565b92506020840135915060408401356129e98161298d565b809150509250925092565b60008060408385031215612a0757600080fd5b8235612a128161298d565b946020939093013593505050565b60008060008060808587031215612a3657600080fd5b8435612a418161298d565b935060208501359250604085013591506060850135612a5f8161298d565b939692955090935050565b600080600080600080600060e0888a031215612a8557600080fd5b8735612a908161298d565b96506020880135955060408801359450606088013593506080880135612ab58161298d565b9699959850939692959460a0840135945060c09093013592915050565b600060208284031215612ae457600080fd5b81356124278161298d565b600080600060608486031215612b0457600080fd5b8335612b0f8161298d565b95602085013595506040909401359392505050565b600181811c90821680612b3857607f821691505b60208210811415612b72577f4e487b7100000000000000000000000000000000000000000000000000000000600052602260045260246000fd5b50919050565b7f4e487b7100000000000000000000000000000000000000000000000000000000600052601160045260246000fd5b60008219821115612bba57612bba612b78565b500190565b83151581528215156020820152815473ffffffffffffffffffffffffffffffffffffffff808216604084015260a091821c606084015260018401548082166080850152821c82840152600284015480821660c085015280831c65ffffffffffff1660e085015260d01c61010084015260038401549081166101208401529081901c69ffffffffffffffffffff1661014083015260f01c6101608201526101808101611631565b6000817fffffffffffffffffffffffffffffffffffffffffffffffffffffffffffffffff0483118215151615612c9d57612c9d612b78565b500290565b600082612cd8577f4e487b7100000000000000000000000000000000000000000000000000000000600052601260045260246000fd5b500490565b600082821015612cef57612cef612b78565b500390565b815173ffffffffffffffffffffffffffffffffffffffff16815261014081016020830151612d3260208401826bffffffffffffffffffffffff169052565b506040830151612d5a604084018273ffffffffffffffffffffffffffffffffffffffff169052565b506060830151612d7a60608401826bffffffffffffffffffffffff169052565b506080830151612da2608084018273ffffffffffffffffffffffffffffffffffffffff169052565b5060a0830151612dbc60a084018265ffffffffffff169052565b5060c0830151612dd660c084018265ffffffffffff169052565b5060e0830151612dfe60e084018273ffffffffffffffffffffffffffffffffffffffff169052565b506101008381015169ffffffffffffffffffff16908301526101209283015161ffff16929091019190915290565b600060208284031215612e3e57600080fd5b81516124278161298d565b7f4e487b7100000000000000000000000000000000000000000000000000000000600052604160045260246000fd5b604051601f82017fffffffffffffffffffffffffffffffffffffffffffffffffffffffffffffffe016810167ffffffffffffffff81118282101715612ebf57612ebf612e49565b604052919050565b600067ffffffffffffffff821115612ee157612ee1612e49565b5060051b60200190565b600082601f830112612efc57600080fd5b81516020612f11612f0c83612ec7565b612e78565b82815260059290921b84018101918181019086841115612f3057600080fd5b8286015b84811015612f4b5780518352918301918301612f34565b509695505050505050565b60008060408385031215612f6957600080fd5b825167ffffffffffffffff80821115612f8157600080fd5b818501915085601f830112612f9557600080fd5b81516020612fa5612f0c83612ec7565b82815260059290921b84018101918181019089841115612fc457600080fd5b948201945b83861015612feb578551612fdc8161298d565b82529482019490820190612fc9565b9188015191965090935050508082111561300457600080fd5b5061301185828601612eeb565b9150509250929050565b7f4e487b7100000000000000000000000000000000000000000000000000000000600052603260045260246000fd5b60006020828403121561305c57600080fd5b8151801515811461242757600080fd5b815473ffffffffffffffffffffffffffffffffffffffff808216835260a091821c602084015260018401548082166040850152821c60608401526002840154808216608085015280831c65ffffffffffff168385015260d01c60c0840152600384015490811660e08401529081901c69ffffffffffffffffffff1661010083015260f01c61012082015261014081016104ae565b60006020828403121561311257600080fd5b5051919050565b6000806040838503121561312c57600080fd5b825161ffff8116811461313e57600080fd5b602084015190925061314f8161298d565b809150509250929050565b6000825161316c818460208701612910565b919091019291505056fea264697066735822122044e8915702b34c145ec0637bbb8687c9c14bd66a6b9ef4bcd5ced4fa33c9bfb164736f6c634300080a0033",
    "linkReferences": {}
  },
  "methodIdentifiers": {
    "_handleRoyaltyEnginePayout(address,uint256,uint256,address)": "9128c22c",
    "auctionForNFT(address,uint256)": "a90832a1",
    "cancelAuction(address,uint256)": "859b97fe",
    "createAuction(address,uint256,uint256,uint256,address,uint256,uint256)": "b1393b47",
    "createBid(address,uint256,address)": "34f507b8",
    "erc721TransferHelper()": "f7cd1d9b",
    "name()": "06fdde03",
    "registrar()": "2b20e397",
    "setAuctionReservePrice(address,uint256,uint256)": "cbe98dba",
    "setRoyaltyEngineAddress(address)": "b249bb30",
    "settleAuction(address,uint256)": "5138b08c",
    "supportsInterface(bytes4)": "01ffc9a7"
  },
  "id": 29
}